:020000040800F2
:1000000018240020FD02000805030008070300086B
:10001000090300080B0300080D030008000000009E
:100020000000000000000000000000003502000891
:100030001103000800000000AD020008E9020008FA
:100040001703000817030008170300081703000828
:100050001703000817030008170300081703000818
:100060001703000817030008170300081703000808
:1000700017030008170300081703000817030008F8
:1000800017030008170300081703000817030008E8
:1000900017030008170300081703000817030008D8
:1000A00017030008170300081703000817030008C8
:1000B00017030008170300081703000817030008B8
:1000C00017030008170300081703000817030008A8
:1000D000C51D0008170300081920000817030008B1
:1000E00017030008170300081703000800F002F8C0
:1000F00000F04BF80AA090E8000C82448344AAF177
:100100000107DA4501D100F040F8AFF2090EBAE874
:100110000F0013F0010F18BFFB1A43F0010318473B
:100120001C4400003C440000103A24BF78C878C149
:10013000FAD8520724BF30C830C144BF04680C60ED
:10014000704700000023002400250026103A28BF35
:1001500078C1FBD8520728BF30C148BF0B60704739
:10016000662904F0B980002070471FB59DE80300A0
:1001700000F060FA00F0CBFC04000020002103F046
:100180003FFEE0601FBD10B510BD00F0EAFD114656
:10019000FFF7EBFF0FB400F00BF80FBC02F02EFBE3
:1001A00000F0A8F903B4FFF7EEFF03BC00F0D2FDA6
:1001B00004B002F047FB0448002102F025FC02F0E5
:1001C00053FB00F097F900009844000880F3098879
:1001D0007047EFF309807047684680F30988044848
:1001E0000078C00714BF0220032080F314887047F2
:1001F00058440008DFF818C0EFF305831B0618BF4A
:100200006047EFF31483DB0708BF604700DF7047E8
:10021000B32A0008DFF818C0EFF305831B0618BFE8
:100220006047EFF31483DB0708BF604700DF7047C8
:100230004D2D0008EFF30980816911F8021CF1B916
:1002400090E80F10E047EFF3098C8CE80700144B9F
:1002500093E8060091420FD039B12CE9F00FC1F8B4
:1002600028C00CB403F062F90CBC1A60D2F828C0A4
:10027000BCE8F00F8CF309886FF0020E704710B5E0
:10028000084A1268914209D8074C54F8214090E876
:100290000F10A047EFF3098C8CE80F0010BD000091
:1002A00078000020581600085816000803F010F8CF
:1002B0000C4B93E80600914210D0EFF3098C2CE927
:1002C000F00FC1F828C00CB403F030F90CBC1A6070
:1002D000D2F828C0BCE8F00F8CF309886FF0020E4A
:1002E000704700007800002003F0E8F9E0E7000024
:1002F00002F0DEFB03F0E2F9DAE70000094880478C
:1003000009480047FEE7FEE7FEE7FEE7FEE7FEE7F7
:10031000FEE7FEE7FEE7FEE704480549054A064B0F
:1003200070470000BD1F0008ED000008181E0020E7
:1003300018240020182000201820002000487047B2
:10034000B41D00200B3020F0070070472DE9F0416C
:1003500017460E460446FFF7F5FFA042054633D97F
:10036000002F1CBF06F10C0001F096FF30467468A8
:10037000F4B12168A94217D305F1080291423CBFAC
:100380006168416007D3626861194A602268521B44
:100390000A6041602560002F1CBF06F10C0001F0CF
:1003A000A1FF201DBDE8F08120466468002CE0D14B
:1003B0002946304600F02AF90028D7D1002F1CBF6B
:1003C00006F10C0001F08EFF0020BDE8F08110B5B1
:1003D000044600F012F901682046BDE810400122F1
:1003E000B4E770B516460D46041F002808BF70BD5F
:1003F000002E1CBF05F10C0001F04EFF2B46586883
:10040000002818BFA04238BF0346F8D31968CA189D
:10041000A24218BF5C6003D122681C4611441960D7
:1004200021680A19824218BF606004D14268626084
:10043000006808442060002E1CBF05F10C0001F08C
:1004400051FF70BD10B5044600F0D7F80168204692
:10045000BDE810400122C4E70FB41CB50C0007AA88
:10046000009001D02044401E074B7B446946019018
:10047000069800F02CFB002C03D06946002000F009
:1004800039FB1CBC5DF814FB910600002DE9F0411E
:100490000E460446002020622046E168884730B3BB
:1004A000252805D0D4E901219047206A401CF2E7B5
:1004B000E168204600278847050018D0A5F14100D3
:1004C000192802D820354FF40067324629462046C5
:1004D0002760FFF745FE40B1012804D0F61D26F045
:1004E00007060836D8E7361DD6E72846DAE7206A39
:1004F000BDE8F08110B50446AFF300802046BDE8AA
:100500001040FFF74FBE032A40F2308010F0030C7A
:1005100000F0158011F8013BBCF1020F624498BF56
:1005200011F801CB00F8013B38BF11F8013BA2F1F3
:10053000040298BF00F801CB38BF00F8013B11F06E
:10054000030300F02580083AC0F0088051F8043B0E
:10055000083A51F804CBA0E80810F5E7121D5CBF7B
:1005600051F8043B40F8043BAFF30080D20724BFAE
:1005700011F8013B11F801CB48BF11F8012B24BF42
:1005800000F8013B00F801CB48BF00F8012B704791
:1005900010B5203AC0F00B80B1E81850203AA0E81E
:1005A0001850B1E81850A0E81850BFF4F5AF5FEA52
:1005B000027C24BFB1E81850A0E8185044BF18C905
:1005C00018C0BDE810405FEA827C24BF51F8043BAC
:1005D00040F8043B08BF7047D20728BF31F8023B00
:1005E00048BF11F8012B28BF20F8023B48BF00F894
:1005F000012B704770477047704710B5FFF79EFE9C
:10060000083010BD704770477047704738B50446D2
:100610000A4600206946AFF30080002808BF38BDB5
:1006200002460099204600F077FA012038BD0120EB
:1006300000F088BBF8B5AFF30080054600200C46FB
:10064000102000BF0646A819A0420DD932466946BF
:100650000020AFF30080070008BF00F073FB009894
:10066000A04218BF0546C419FFF7C7FF056007463B
:10067000F01D20F007004619284600F00AF8B442A1
:1006800008BFF8BDA21B31463868BDE8F84000F04D
:1006900043BA00210160C0E901100C3001F00CBE2A
:1006A0001020704770472DE9FF4F0C461E464FF053
:1006B000FF378BB0D2E90001DDF860800A908A46EE
:1006C000C1F30A5505B93D46002108464FF0000028
:1006D000BAF1000F00F4400005DA00EB80004FF49F
:1006E000400101EA50004FEA9059B9F1010F00DDD5
:1006F000B9460A9850EA4A000ED044F61050A5F2C6
:10070000FF3545432F14B8F1000F1ED07542291E46
:100710001EDDC9F100021CE0B8F1010F4FF000002E
:1007200001D0302103E0F24305E02154401CB042E7
:10073000FBDB30460022002121540B99C1F80880D0
:10074000C1E900200FB0BDE8F08FBD1B6D1CDEE7D6
:100750004A4600DA694206A800F082FA06AB93E83E
:10076000070003AB83E8070050460A9900F0ACFB92
:100770008DE80700A0F500501F3800900398002D69
:100780000ADD42F21F014A460844002303A90390F0
:10079000684600F015FE09E0A0F500504A461F38F3
:1007A000002303A90390684600F01FFE8DE80700B0
:1007B0000004000C03D04FF0FF30410800E0104669
:1007C000B8F1000F03D00022009215461EE0751EFE
:1007D00005D400F0C0F9303262556D1EF9D5B3462C
:1007E0000122084302D000227F1C04E02078302838
:1007F00001D100227F1E002A099784D01DE0112D0F
:1008000007DA00F0A8F9303262556D1C50EA010297
:10081000F5D1084302D00098C8B10EE00021681E4F
:1008200005E0235C625C63542254401E491C8142F3
:10083000F7DBAB46A81B401E0990002004F80B0014
:100840000B98099AC0F80880C0E9002B7AE71126B6
:100850004FF0000857E72DE9F04F88460446D21DB7
:1008600022F0070191B0D1E90001CDE90A0101F0C0
:10087000DBFC02460B98C00F01D02D2007E020685A
:10088000810701D52B2002E0202101EAC000032AC4
:10089000099001D0072A05DB03464146204600F0B7
:1008A0009FF90BE12078800601D5E06900E0062081
:1008B000B8F1650F814606D0B8F1660F18D0B8F1CF
:1008C000670F70D131E00020B9F1110F009001DB0A
:1008D000112301E009F101030AAA01A90CA8FFF7FD
:1008E000E2FEDDE90C70002609F10105834647E0D0
:1008F00001204B4600904FF000470AAA01A90CA81E
:10090000FFF7D1FEDDE90DB00C995D46002610B968
:1009100009F101000D18B9EB050003D4C0F1FF3651
:1009200009F10105A5EB09002BE0B9F1010F01DA8E
:100930004FF001090020B9F1110F0090484601DD88
:10094000112300E003460AAA01A90CA8FFF7ABFE99
:10095000DDE90C704D4600268346207800070AD456
:10096000AB4500DA5D4601A8012D04DD411911F8FF
:10097000011C302907D04F4502DA17F1040F04DAC1
:10098000012082460FE06D1EEEE7002F02DCED1B1A
:100990003E4403E0781CA84200DD7D1CB81B00F13A
:1009A000010A4FF000472078000703D4AA4501DB75
:1009B0004FF0FF3A0021B7F1004F0DF143088DF8D9
:1009C000431024D002202B23002F01DA7F422D2355
:1009D0000A21021EA0F1010000DC5FB197FBF1FCCF
:1009E00097FBF1F201FB1C7C17460CF1300C08F868
:1009F00001CDEEE7A8F1010003702188090501D5BA
:100A0000452100E06521A0F1010800F8011C0998CA
:100A10000FA9A1EB0807FF1D00B10120411901EB4F
:100A2000EA70A1693844081A401EA0612078C00607
:100A300002D42046AFF30080099828B1D4E90121FF
:100A40009047206A401C20622078C00622D52046AC
:100A5000AFF300801EE0002E04DBB34502DD01A8E9
:100A6000805D00E03020D4E901219047206A401CDD
:100A70002062761CAAF101005FEA000A0AD100F0A8
:100A800046F8C0680168405CD4E901219047206ABB
:100A9000401C2062281EA5F10105DCDC07E0D4E93A
:100AA000012118F8010B9047206A401C2062381E73
:100AB000A7F10107F3DC2046AFF30080032011B05B
:100AC00041E6000001694A1C02610878704700B5E0
:100AD0008FB0CDE901310021059105497944CDE977
:100AE000031011466846FFF7D1FC0FB000BD0000AF
:100AF000E5FFFFFF0A6802F8010B0A607047D1E9C1
:100B000000239A4202D2531C0B601070704710B53C
:100B1000FFF714FC203010BD30B404468C46436807
:100B2000002B18BF634538BF1846F8D30368184434
:100B3000604507D0C81C20F0070000F1040CACEBA6
:100B40000100121A2146CCF8002030BC00220CF122
:100B50000400FFF746BC30B5B0F10A024FEA900E30
:100B600071F100034EEA817EB0EB0E0061EB910162
:100B70004FEA101E4EEA017E10EB0E0041EB111100
:100B80004FEA102E4EEA016E10EB0E0041EB1121E0
:100B90004FEA104E4EEA014E10EB0E0041EB1141B0
:100BA000401841F100014FEAD00040EA41704FEA9D
:100BB000D10110EB80054FEA810444EA907444EBC4
:100BC00001046D1944EB0404521BA3414FF00003D0
:100BD00048BF0A3200D530BD401C41F1000130BD94
:100BE0002DE9F0411F46044603260168072A01F457
:100BF000006004DB08B116A505E016A503E008B106
:100C000015A500E015A521F010002060A069C01E08
:100C1000A0610FB1401EA0612046AFF300804FB12C
:100C2000D4E9012138469047206A401C2062C01C4C
:100C3000206206E0206AFAE7D4E9012115F8010BE9
:100C40009047761EF8D22046AFF30080BDE8F081D1
:100C50004E414E006E616E00494E4600696E660060
:100C60002DE9F047814616468AB0354878440DC8CC
:100C70008DE80D0032487844801C03AC0DC884E830
:100C80000D0041F69B300844372190FBF1F290FBB8
:100C9000F1F5A5F1800501FB12041B3C02D564426D
:100CA000012000E00020DFF898A080460027FA44E9
:100CB000AAF1BE0A0EE0E0070AD03246684607EB0A
:100CC000470101230AEB810100F08FFB8DE807004B
:100CD00064107F1C002CEED1194F7F44AE3F19E009
:100CE000E80715D007EB04100DF1180A90E80E0084
:100CF0008AE80E00C068F04201D198190890324687
:100D0000012306A903A800F070FB03AB83E80700EA
:100D10006D10641C002DE3D14FF00103324669468B
:100D2000B8F1000F03A802D000F04AFB01E000F088
:100D30005CFBC9E90001C9F808200AB0BDE8F087EA
:100D4000B438000010B500F037F8BDE8104000F0EE
:100D50002DB8000001491820ABBEFEE726000200B6
:100D600070477546FFF7EAFAAE46050069465346F6
:100D700020F00700854618B020B5FFF7CDFABDE892
:100D800020404FF000064FF000074FF000084FF0F2
:100D9000000B21F00701AC46ACE8C009ACE8C00983
:100DA000ACE8C009ACE8C0098D467047002801D006
:100DB000FFF7D0BF7047000010B5012805D0002113
:100DC00003A000F061F8012010BD09A1F8E70000C0
:100DD00053494752544D454D3A204F7574206F6624
:100DE0002068656170206D656D6F7279000000008C
:100DF0003A2048656170206D656D6F727920636F70
:100E000072727570746564004FF0013C50F8042BE9
:100E100051F8043B9A4221D1A2EB0C03934313EA0D
:100E2000CC1317D150F8042B51F8043B9A4215D13A
:100E3000A2EB0C03934313EACC130BD150F8042B11
:100E400051F8043B9A4209D1A2EB0C03934313EAF5
:100E5000CC13DBD04FF00000704700BFD01A01BAAE
:100E6000B1FA81F101F0180122FA01F0CB40C1F191
:100E70002001DBB2C0B2C01A2CFA01F3D11A91439F
:100E800011EAC311E6D1704770B505460C460A2039
:100E900000E06D1C00F011F835B128780028F8D179
:100EA00002E0641C00F009F814B120780028F8D1A1
:100EB000BDE870400A20AFF3008008B569468DF8A0
:100EC00000000320ABBE08BD5FEA400C08BF91F0F4
:100ED000000F4FEA8C234FEAC12243EA51514FEAF7
:100EE0001C5018BF00F5F0404FEA300018BF41F029
:100EF00000415FEA6C5C00F02980BCF1FF3F08BF55
:100F000040F080407047130C06BF12044FF0100CE5
:100F10004FF0000C130E04BF12020CF1080C130F5B
:100F200004BF12010CF1040C930F04BF92000CF1EA
:100F3000020CD30F04BF52000CF1010C11464FF00C
:100F40000002A0F11F00A0EB0C00704711F0004F51
:100F500008BF704731F000413FF4D5AF0B0C06BF1E
:100F600009044FF0100C4FF0000C0B0E04BF0902E7
:100F70000CF1080C0B0F04BF09010CF1040C8B0FD2
:100F800004BF89000CF1020CCB0F04BF49000CF127
:100F9000010CCCF12003A0EB0C0022FA03F302FABF
:100FA0000CF241EA030100F10100704720F07F4C90
:100FB00080EA030023F07F47ACEB070303F57C5383
:100FC00000F0004003F1FF032DE980494FEA154B83
:100FD00009B44FEA144325EA0B4E24EA03480FF202
:100FE000042606EB132749083E785FEA320203FB2A
:100FF0000667C7F5000707FB06F64FEA54374FEAC6
:10100000D64606F1020607FB066CCCF1005C4FEAFF
:101010001C472CEA074C07FB06F40CFB06F504EB17
:1010200015464FEA961634BF00204FF000404FEAB5
:10103000D13706FB07FC4FEA1C4C0CFB0BF7D21B0D
:1010400003FB0CF761EB07010CFB0EF7B0EB07405D
:1010500072EB17420CFB08F734BFA2EB0742B2EB6E
:10106000074261EB17414FEA0C444FEA910706FB38
:1010700007FC4FEA1C4C0CFB0BF7B0EBC74072EBC4
:10108000573203FB0CF734BFA2EBC742B2EBC742A7
:1010900061EB57310CFB0EF7B0EBC70072EB5772E8
:1010A0000CFB08F734BFA2EBC702B2EBC70261EB3F
:1010B0005771039F4FEA816141EA921104EBCC041E
:1010C0004FEAD1374FEA826206FB07FC42EA9012F0
:1010D0004FEA80604FEA1C4C0CFB0BF7D21B03FB62
:1010E0000CF761EB07010CFB0EF7B0EB074072EB5E
:1010F00017420CFB08F734BFA2EB0742B2EB0742E2
:1011000061EB17414FEA8C554FEA910704EB9C24A1
:1011100006FB07FC4FEA1C4C0CFB0BF7B0EBC7407F
:1011200072EB573203FB0CF734BFA2EBC742B2EBB2
:10113000C74261EB57310CFB0EF7B0EBC70072EB07
:1011400057720CFB08F734BFA2EBC702B2EBC70221
:1011500061EB577115EB4C254FEA816141EA921121
:101160004FEA82624FEAD13742EA901206FB07FC4F
:1011700044F100044FEA80604FEA1C4C0CFB0BF773
:10118000D21B03FB0CF761EB07010CFB0EF7B0EB76
:10119000074072EB17420CFB08F734BFA2EB074283
:1011A000B2EB074261EB174115EB1C154FEA813199
:1011B00041EA92414FEA823242EA90424FEA80305D
:1011C0004FEA0C7644F1000448EA03434EEA0B4828
:1011D0004FF0000EB2EB080C71EB030724BF624620
:1011E00039464EEB0E0E4FF0000B001852414941AC
:1011F0004BEB0B0BB2EB080C71EB03077BF1000B15
:1012000024BF624639464EEB0E0E4FF0000B00181D
:10121000524149414BEB0B0BB2EB080C71EB03074E
:101220007BF1000B24BF624639464EEB0E0E51EAAD
:10123000020718BF46F0010616EB0E7655F10002C4
:1012400054F1000103D5BDE88901BDE80088BDE87F
:101250008901BDE80048B619524141EB0101A3F1F3
:101260000103704780807F7E7D7C7B7A79787776FA
:1012700076757473727171706F6E6E6D6C6C6B6A73
:101280006A69686867666665646463636261616011
:10129000605F5F5E5E5D5D5C5C5B5B5A5A5959588E
:1012A00058575756565555555454535352525251F8
:1012B000515050504F4F4F4E4E4D4D4D4C4C4C4B4E
:1012C0004B4B4A4A4A494949484848474747474695
:1012D00046464545454444444443434343424242D1
:1012E00042414141002B9C4630D477002BD01CB5A5
:1012F0004FEA370703B44FF010004FF01001BAF176
:10130000000F06D0BCF1000FDCBF40F0080040F039
:1013100008014FF000000FBCBDE810400BF1010BBD
:10132000BBF1010F08BF5FEA170722BF12F10102EC
:1013300011F101014FF0004143F1000300F00040C2
:1013400043EA00007047F9D35708D0E746EA06465B
:1013500013F1400F4FEA16461FDD13F1200FDFBFD8
:1013600016430A46002120335B42BED0C3F120075A
:1013700046EA064602FA07F74FEA164646EA070625
:10138000C3F1200722FA03F201FA07F721FA03F169
:101390004FF0000342EA0702A7E746EA020646EAE0
:1013A00006464FEA164646EA0106BCBF46EA06462E
:1013B000360C4FF000034FF000024FF0000194E7AD
:1013C0002DE9804C9A46934670B491E8380007C8DE
:1013D00031EA400C48BF34EA430C03D5FFF7E6FD81
:1013E000FFF780FFF0BCBDE8008C2DE9804C9A46E9
:1013F000934670B491E8380007C810F0804F08BFDA
:1014000013F0804F03D100F005F8FFF76BFFF0BC3D
:10141000BDE8008C20F07F4780EA030023F07F4C7A
:1014200007EB0C03A3F57C5300F00040A3F1FE038F
:1014300092F0000F00F0B38095F0000F00F077807D
:101440002DE901494FEA11404FEA144621EA0048CC
:1014500000FB06FC24EA064708FB06F607FB08F833
:1014600000FB07F718EB06484CEB164C4FEA124B03
:1014700018EB07484FEA15464CEB174022EA0B4E93
:101480000BFB06FC25EA06470EFB06F607FB0EFEE5
:101490000BFB07F71EEB064E4CEB164C4FF000060D
:1014A0001EEB074E4CEB174B18EB0B0840F10000FE
:1014B00018EB0E0B58EB000840F100008F1A4FF0AC
:1014C00000013CBFC943661B14BFB5EB040C0021EF
:1014D0003CBFC943F61B4FEA17444EEA8E0E27EA7B
:1014E00004454FEA1C4704FB07622CEA074C05FB46
:1014F00007F70CFB05F604FB0CFC16EB074642EB6A
:10150000174216EB0C4642EB1C421BEB060658EB4F
:101510000202414146EA9E0601D5BDE80189B6199D
:10152000524141EB0101A3F10103BDE801894FEAFA
:1015300014454FEA114724EA054621EA074C05FB0A
:1015400007F406FB07F70CFB06F105FB0CFC11EB9F
:10155000074144EB17444FEA124711EB0C4144EBAF
:101560001C4422EA074C05FB07F206FB07F70CFBBD
:1015700006F605FB0CFC16EB074642EB174216EB92
:101580000C4642EB1C456A1854F1000148BF7047F5
:10159000B619524141EB0101A3F10103704795F0E7
:1015A000000F37D04FEA11424FEA144721EA0246B2
:1015B00024EA074C02FB07F106FB07F70CFB06F4D5
:1015C00002FB0CFC14EB074441EB17414FEA1547B3
:1015D00014EB0C4441EB1C4125EA074C02FB07F5D8
:1015E00006FB07F70CFB06F602FB0CFC16EB0746A6
:1015F00045EB174516EB0C4645EB1C42121951F111
:10160000000148BF7047B619524141EB0101A3F1F7
:10161000010370474FEA14454FEA114724EA054693
:1016200021EA074C05FB07F106FB07F70CFB06F266
:101630004FF0000605FB0CFC12EB074241EB174193
:1016400012EB0C4251EB1C4148BF7047921841EB22
:101650000101A3F1010370470000000030B587B01D
:1016600001214FF4017000F053FB4FF4804000F073
:1016700039FB002401204FF46021CDE902148DF8DC
:101680000400194D8DF805008DF81000009469468E
:10169000284600F045F8052301220721284600F0DE
:1016A00063F88DF817408020ADF8140003208DF802
:1016B000160005A90D4800F013FA0121284600F094
:1016C00017F8284600F08AF82C46204600F021F84A
:1016D0000028FAD1204600F090F8204600F012F8D9
:1016E0000028FAD107B030BD0024014000080140B5
:1016F0000029816802D041F0010101E021F00101DF
:1017000081607047014600208968490700D50120A3
:101710007047014600208968090700D501207047FD
:1017200010B542680E4B0C791A400B6842EA04224D
:101730001343436083680B4A1340D1E902422243BA
:101740004C7943EA44031A438260C26A097C22F45A
:101750007002491EC9B242EA0151C16210BD0000C7
:10176000FFFEF0FFFDF7F1FF70B5072409290AD944
:10177000C568A1F10A0606EB4606B440A543B3408E
:101780001D43C56007E0056901EB4106B440A54370
:10179000B3401D4305611F23072A09D2446B521E23
:1017A00002EB820293409C4391400C43446370BD22
:1017B0000D2A09D2046BD21F02EB820293409C4394
:1017C00091400C43046370BDC46A0D3A02EB82027F
:1017D00093409C4391400C43C46270BD816841F0CA
:1017E0000801816070470029816802D041F4A0019E
:1017F00001E021F4A00181607047816841F004019B
:101800008160704710B500F0A7FB024802490068EC
:10181000086010BD5C000020000000200449096839
:10182000044AB1FBF2F14143491EFDD2704700006A
:1018300000000020808D5B00002701212048FFF779
:10184000D2FF1F484C300168DFF878808EB28146A5
:10185000F01B02F031FB21F0004104460D4600224E
:10186000434602F08DFC06D9204629460022434615
:1018700002F04CFB1CD8144D37464FF0FF3128685E
:1018800001F028F8044603202070304602F02BFBBC
:101890004FF066320D4B02F075FB6FF00B0202F059
:1018A0004FFD02F0C3FA60602146286801F04FF84E
:1018B000642000F0BBFFD9F8000086B2C8E7000042
:1018C00000240140000069401400002066660A40C0
:1018D0004FF0FF3631461D4D27E0022804D0032883
:1018E0002BD0042820D128E00121002000F0F2FDB7
:1018F00000F0D6FD0121002000F0ECFD14A00AE06C
:101900000121002000F0E6FD00F0CAFD01210020C9
:1019100000F0E0FD0FA000F06BFE201D00F068FE5F
:101920002146286800F0FAFF3146286801F004F8E3
:1019300008780C460128E3D0CFE70021032000F00F
:10194000C9FD0521606800F08FFDE9E71400002063
:1019500055523A0053503A001FB50024651E2946DF
:10196000012001F045F8DFF884800121D8F810004B
:1019700001F026F86E46DFF87890AA4600F01CFACF
:10198000C0B20D2C05D20D2803D03055641CE4B232
:1019900022E0184F5146386800F09CFF05460120B0
:1019A00028700D226946281DFEF7F2FD2946386889
:1019B00000F0CDFF00254F4606E0715D0A22386831
:1019C00000F0F2FF6D1C6DB2A542F6DB0A22114653
:1019D000386800F0E9FF00245146012001F008F8C2
:1019E0000121D8F8100000F0EBFFC7E7200000202D
:1019F00018000020140000204FF0FF34044D214651
:101A0000286800F0C5FFC8B200F074FB2146F7E774
:101A10001C0000200024651E2946012000F0E8FF7C
:101A2000DFF890900121D9F8000000F0C9FFDFF83D
:101A300088A0224F4FEA050B00F0E8FAC0B20D2C47
:101A400006D20D2804D00AF80400641CE4B226E093
:101A50001B4E5946306800F03DFF054602202870B5
:101A60000D221549281DFEF74EFD2946306800F06D
:101A70006EFF002556464FF0200808E0715D0A22EF
:101A8000386800F091FF06F805806D1C6DB2A54224
:101A9000F4DB0A221146386800F086FF002459461C
:101AA000012000F0A5FF0121D9F8000000F088FF17
:101AB000C2E700002000002054020020180000208F
:101AC000140000204FF0FF34044D2146286800F038
:101AD0005FFFC8B200F00EFB2146F7E718000020B8
:101AE000F0B5CA78002502F00F03D20601D58A7836
:101AF00013430A784FF00F0E12F0FF0F4FF0010260
:101B00001CD004680F8802FA05F63740B74211D19D
:101B10004FEA850C0EFA0CF724EA070703FA0CF4D7
:101B20003C43CF78282F02D0482F02D002E04661F4
:101B300000E006616D1C082DE4D304600C88FF2CC6
:101B40001ED944685FF0000606F1080702FA07F59F
:101B50000F882F40AF420FD14FEA860C0EFA0CF7D8
:101B6000BC4303FA0CF73C43CF78282F00D14561E2
:101B7000CF78482F00D10561761C082EE4D344604D
:101B8000F0BD000010B50021034800F0B1FE03498C
:101B90000860002010BD0000CC43000814000020A5
:101BA00010B50021164800F02FFF164C00212060D0
:101BB0001348103000F028FFA060114800212030A9
:101BC00000F022FF60600E480021403000F01CFF52
:101BD000E0600B480021303000F016FF206108481B
:101BE0000021503000F010FF6061A16820680843B8
:101BF0006168084301D0002010BD4FF0FF3010BDD8
:101C0000E84300082000002010B50021064800F03D
:101C1000A9FE064C002120600348083000F0A2FE17
:101C200060604FF0FF3010BDD8430008180000205E
:101C300010B50021084600F04DFC09A000F0D8FCCA
:101C40000021082000F046FC06A000F0D1FC002096
:101C50000549202221F81020401C0E28FADB10BD77
:101C600041313A0041323A005402002070B50F234E
:101C7000C47801780122F4B1144C2468457804F446
:101C8000E064C4F5E064240AC4F10406E340847807
:101C9000B5401C402C4301F1E021230181F80034C0
:101CA000007800F01F018A404009800000F1E02028
:101CB000C0F8002170BD01F01F008240480980007B
:101CC00000F1E020C0F8802170BD00000CED00E0C4
:101CD0000249084302490860704700000000FA0505
:101CE0000CED00E0034A516821F44041014351608A
:101CF0007047000000100240044A0029D16901D059
:101D0000014300E08143D1617047000000100240B0
:101D1000044A0029916901D0014300E081439161A7
:101D2000704700000010024030B51F494A6812F0A9
:101D30000C031E4A03D0042B01D0082B21D00260D3
:101D40004A680F231A4C03EA1212A35C0268DA40B5
:101D500042604B68072505EA1323E35C22FA03F38C
:101D600083604B6805EAD323E35CDA40C2604968CC
:101D7000032303EA9131231F595CB2FBF1F10161A6
:101D800030BD4A684B6802F470124FF0020413F43D
:101D9000803F04EB924202D04B689B0301D5054B78
:101DA00000E0024B5A43CAE70010024000127A00DA
:101DB0004C00002000093D00014800F05BB8000025
:101DC000003800400248018821F00101018070477D
:101DD0000838004070B5012188B08803FFF78CFFF8
:101DE00000240220ADF806000720ADF810001825E9
:101DF000ADF800404FF48270ADF80C50ADF80840DB
:101E0000ADF80200ADF80440ADF80E40ADF80A4060
:101E10006946164800F030F88DF817504FF420400E
:101E2000ADF81400124E01258DF8165005A9304664
:101E3000FFF756FE8DF817404FF4A040ADF81400A0
:101E40008DF8165005A93046FFF74AFE24208DF87C
:101E500018008DF81B5003208DF819008DF81A50CA
:101E600006A8FFF703FF08B070BD0000003800406F
:101E7000000C01408089704730B502884C8802F41C
:101E800041530A88CD8822438C882C4322430C89F5
:101E900022434C8922438C892243CC8922431A4312
:101EA0000280828B22F400628283098A018230BD23
:101EB0000CB50021264801910091026842F480325D
:101EC00002604FF4A063026802F400320092019AAB
:101ED000521C0192009A12B9019A9A42F3D10268F7
:101EE000920333D5012100911A490A6842F0100289
:101EF0000A600A6822F003020A600A6842F00202DD
:101F00000A604168416041684160416841F4806114
:101F10004160416821F47C114160416841F4E8115D
:101F20004160016841F08071016001688901FCD560
:101F3000416821F003014160416841F002014160C4
:101F40004168C1F381010229FAD10CBD00910CBD99
:101F50000010024000200240144910B54868144A9D
:101F600010F00C03134803D0042B01D0082B0AD027
:101F7000026049680F4AC1F30311121D515C0268E7
:101F8000CA40026010BD4A684B6802F470124FF0FC
:101F9000020413F4803F04EB924202D04B689B038F
:101FA00001D5054B00E0024B5A43E1E70010024027
:101FB00000127A005C00002000093D000F4810B5B7
:101FC000016841F00101016041680D4A1140416022
:101FD00001680C4A11400160016821F48021016010
:101FE000416821F4FE0141604FF41F018160FFF759
:101FF0005FFF05494FF00060086010BD001002400F
:102000000000FFF8FFFFF6FE08ED00E0014800F0D9
:1020100003B90000004400400448018821F0200179
:10202000018003480121006800F0D6BC0044004054
:10203000200000202DE9F041012186B04804FFF77F
:102040005BFE4FF41650002400900C20ADF80A00FF
:10205000DFF89480ADF80640ADF80C40ADF80840CC
:10206000ADF804406946404600F080F80121404642
:1020700000F052F801210420FFF74AFE0425ADF8D4
:10208000105018208DF81300184F02268DF812609A
:1020900004A93846FFF724FD0820ADF810008DF89C
:1020A00013508DF8126004A93846FFF719FD01227C
:1020B00040F22551404600F040F84FF44070FFF7E1
:1020C00007FE0B4880F8144D26208DF814000320DD
:1020D0008DF8150001208DF8170005A8FFF7C6FD43
:1020E00006B0BDE8F0810000004400400008014057
:1020F0000FE000E070B5074C05468021204600F057
:1021000015F80028F9D029462046BDE8704000F0B7
:1021100087B80000004400400029818902D041F4C2
:10212000005101E021F400518181704702460020F6
:1021300012880A4200D00120704710B5C1F3421343
:1021400001F01F040121A140012B07D0022B07D071
:102150001430002A026805D00A4304E00C30F8E786
:102160001030F6E78A43026010BD000030B5044627
:10217000008A85B00D464CF6FF710840E98801439E
:102180002182A1894EF6F3100140A8882A891043C4
:102190006A890A431043A081A08A4FF6FF41084094
:1021A000A9890143A1826846FFF7BEFD1948844210
:1021B00001D1039800E00298A189090400EBC00155
:1021C00001EB0010296801D5490000E08900B0FB4F
:1021D000F1F06422B0FBF2F109010B096FF0180570
:1021E0006B4300EB8300A3891D044FF0320306D537
:1021F00003EBC000B0FBF2F000F0070005E003EBDA
:102200000010B0FBF2F000F00F000843208105B091
:1022100030BD0000003801408088C0F308007047DE
:10222000C1F3080181807047490050EAC12018BFFE
:1022300004204A0D18BF40F0010040F2FF72B2EBDB
:10224000515F08BF40F00200012808BF0520704719
:1022500010B5002A06DA22F00042D21D22F0070350
:10226000102203E0D21C22F003030C2213B19C18AD
:102270008C4201D9012010BD024401448360C0E9B1
:102280000021C91AD018884202D810600246F9E726
:102290000020106010BD000005490978002905D014
:1022A00000684FF6FF71DFF80CC000DF70470000D8
:1022B0007100002059320008084A10B51168034621
:1022C000082900D3FEE7064800EB0110491C1860FE
:1022D000116000F04DFF012010BD000044000020FF
:1022E000D01C002004490978002903D00068DFF8D9
:1022F0000CC000DF70470000710000208131000831
:1023000008480068C0010BD507480068C00707D01F
:10231000054880380068002802DA04490120087066
:1023200070470000FCED00E0800E00E0940000200B
:102330004FF06042D36F002BFCD0036BD367D36F99
:10234000002BFCD0C07840EA0120A2F87C00704746
:102350004FF06041CA6F002AFCD081F87C007047C2
:102360000EB5802200B109B110460AE001780129BA
:10237000FAD101A900F046F8042801D0002000E0BD
:102380001020DDE9011203B000BD70B50D46040058
:1023900003D012B92078012801D0802070BD2046DA
:1023A00000F094FD28B12946204600F056F80020A0
:1023B00070BD812070BD70B50C4601F09FF94FF0E3
:1023C000004108B1220C01D0084670BD058BC178D0
:1023D000A0B200F003F8284670BD00000A4601468E
:1023E000074810B500EB820050F8040C002805D017
:1023F00000F0BCFFBDE8104000F0A8BF10BD000019
:102400004C19002010B504468089002824D060892A
:1024100004EB800000690860606840B160780228C1
:1024200005D10021204600F0A1FF00F08FFF04F14C
:102430000C0000BFD0E85F1F491E8AB2C0E8512FD0
:102440000029F7D16089401C80B26081E18988420F
:1024500001D100206081042010BD10B500F086FF7E
:10246000BDE8104000F072BF7CB506460C46084639
:10247000FDF7ADFF0546304601F0B8FECDE900019D
:1024800006A2611C2846FDF7E7FF284600F0B0F8D9
:102490002846BDE87C40FDF7D5BF0000256600005A
:1024A00010B500F023F9402801D2002100E00121FD
:1024B000002000F00FF8BDE8104001A000F098B82F
:1024C000202020202020202020202020202020200C
:1024D0000000000031B14030C0B240F0800000BFC9
:1024E00000F078B940F08000FAE700002DE9F041F3
:1024F0000546FFF787F901210820FFF709FC0121B4
:102500000420FFF705FC264C4FF4E0401026208005
:10251000E6700227A77021462248FFF7E1FA4FF440
:1025200070602080E670A77021461F48FFF7D8FA38
:102530004FF47A50FFF772F91B4C76011034266085
:10254000A715276000F0C4F841F28830FFF766F95C
:1025500000F0BEF84020FFF761F900F0B9F8402024
:10256000FFF75CF92660201D076000F0B1F84020FD
:10257000FFF754F9282000F02DF9082000F02AF97F
:10258000012000F027F9062000F024F90448801EFD
:10259000057045F00800BDE8F04100F01BB90000EF
:1025A00006000020000C01400008014010B5044660
:1025B00000F09CF80A2C04D010280DD050280ED022
:1025C00011E0402801D2402000E00020BDE810408A
:1025D00040F0800000F0FEB80021C02001E00021A2
:1025E000802000F091F82046BDE8104000F0FCB8D3
:1025F00010B5044602E0641CFFF7D8FF20780028DD
:10260000F9D110BD2DE9F0472E4E01004FF40050D6
:102610004FF0000430604FF4805006F1040901D0FF
:10262000306001E0C9F8000027484FF47061018074
:102630004821C1700221817001462448FFF750FAF9
:102640004FF4804737600220FFF7E8F81F4D083548
:102650002868C00500D510242868800501D544F0FD
:1026600020042868400501D544F04004286800058E
:1026700001D544F080043846B8464F46C9F80000FA
:102680000220FFF7CBF8C6F800800220FFF7C6F85B
:102690002868C00501D544F001042868800501D5EB
:1026A00044F002042868400501D544F00404286879
:1026B000000501D544F00804C7F800802046BDE8B5
:1026C000F0870000100C01400600002000080140C7
:1026D00010B505484FF4804404600220FFF79EF8CF
:1026E0000148001D046010BD100C014010B5002011
:1026F000FFF788FF0006FAD40420FFF78FF8BDE843
:1027000010400020FFF77EBF2DE9F04705462E4818
:102710004FF400520260821401B1001F02602B4886
:102720004FF4706101801021C17002218170014657
:102730002748FFF7D5F9DFF898904FF4006609F1C4
:102740001409C9F800607710C9F800704FF40078D8
:10275000C9F800804FF4807AC9F800A02806A9F1D2
:10276000040400D52660680600D52760A80601D5B8
:10277000C4F80080E80601D5C4F800A0FFF7A8FF60
:102780004846C9F80060B94607604746C0F800806F
:10279000D046C0F800A0280700D52660680701D5FC
:1027A000C4F80090A80700D52760E80701D0C4F856
:1027B0000080FFF78DFF2660C4F800902760C4F802
:1027C0000080BDE8F0870000140C014006000020E6
:1027D0000008014010B50446FFF788FF2046BDE819
:1027E00010400021FFF790BF10B50446FFF77EFFB1
:1027F0002046BDE810400121FFF786BF10B5FFF766
:1028000019FCFFF7E7FAFEF729FF0420FFF76EFE39
:10281000FFF70EFA00F016F8FFF7F6F9FFF7B2F936
:10282000FFF7BEF900F020F8002010BDEFF305819E
:1028300009B182207047DFF808C000DF7047000050
:10284000D5390008EFF3058008B182207047EFF317
:102850001480C00703D0DFF80CC000DF704701F020
:10286000C3B80000E939000888B0EFF3058010B163
:10287000822008B07047EFF3148010F00301134872
:1028800006D001291BD0022911D0032919D113E048
:1028900008A981F309880078C0070BD05FF0020017
:1028A00080F31488BFF34F8FBFF36F8F09E0007878
:1028B000C00706D10320F3E70078C00701D0FF204E
:1028C000D7E7DFF80CC000DFD3E70000584400086A
:1028D000593A0008EFF3058212B1012201F006BA5D
:1028E0000022DFF808C000DF70470000ED3C000860
:1028F000EFF305820AB100207047EFF31482D2078C
:1029000002D1044A52781AB1DFF80CC000DF7047D8
:1029100001F0C6B870000020A13A0008EFF305826C
:1029200012B1012201F00EBA0022DFF808C000DF68
:1029300070470000453D000810B530B1006800F058
:1029400027F8102800D1202010BD802010BD20B114
:1029500029B10068002200F027B880207047862047
:1029600070470000EFF305820AB100207047EFF3D3
:102970001482D20702D1044A52781AB1DFF80CC08F
:1029800000DF704701F0ADB870000020E33A0008A6
:10299000EFF305820AB1FFF7E3BCDFF808C000DF00
:1029A00070470000073B0008EFF305830BB1FFF70A
:1029B000ECBCDFF808C000DF70470000413B0008B6
:1029C000EFF3058212B14FF000407047DFF804C00A
:1029D00000DF7047773B0008EFF305820AB1FFF78D
:1029E000EABCDFF808C000DF704700009B3B00082E
:1029F000EFF305830BB182207047DFF808C000DFDA
:102A000070470000C13B0008EFF305820AB10020C7
:102A10007047EFF31482D20702D1044A52781AB1F8
:102A2000DFF80CC000DF704701F0F4B87000002040
:102A3000153C0008DFF80CC000DFDFF80CC000DF39
:102A4000FEE70000813C00089D3C0008DFF804C060
:102A500000DF7047D53C0008094C4FF0FF35294690
:102A60002068FFF795FF02460846102AF7D1FFF7C6
:102A7000EDFF0028F3D0024608469047EFE700003C
:102A800040000020FEE7FEE7074801684FF0E02025
:102A9000416100218161072101610448016841F021
:102AA0007F410160401770475444000820ED00E06A
:102AB000704750E8001F31B10B6840E80032002A2F
:102AC000F7D108467047BFF32F8FFAE710B568B10A
:102AD00061B10B3121F00302016844680B1A1B1B22
:102AE000934205D2084609680029F5D1002010BD9F
:102AF000210007D021180368C1E90032016001F10B
:102B0000080010BD4260083010BD000070B50D46D1
:102B1000002812D04FF6FF71084C884204D2226878
:102B20000146104600F050FC20684570044800F053
:102B300037F9BDE8704000F00BBD70BD7800002093
:102B4000841D00200F4810B50D4942680E480B68DF
:102B50000068934204D00A60CB88421E1A448A80DF
:102B60008A8880B282420AD100200860054800F0BD
:102B700017F90146BDE81040024800F049BC10BDFD
:102B80008C000020841D00208800002070B5194DA5
:102B9000E86800282CD0A88A401EA882002621E0E0
:102BA000A06838B161684160606810B1A168816057
:102BB0006660A6600F482146183800F029FCA08AFC
:102BC000A8826078042804D10B49E08A0988084467
:102BD000A08201206070E068E860E06808B10561EB
:102BE000E6602661A88A002802D1EC68002CD7D1C3
:102BF00070BD00009C1D00208800002070B50400FE
:102C00000FD00D4DA17801262868827891420CD909
:102C100000F01AFC286846702046BDE8704000F0BD
:102C200097BC064800F0BCF8F7E766702146BDE89F
:102C30007040024800F0ECBB78000020841D0020AA
:102C40000321FFF763BF0000054A02EB810151F841
:102C5000041C002902D00A8B82430A8370470000BB
:102C60004C19002010B50446008B0843208362787D
:102C7000618B062A18D0052A19D1084217D001EA1B
:102C80000002628388432083204600F008FC012074
:102C90006070628B0821204600F0FDFB2146BDE8F4
:102CA0001040034800F0B4BB31EA0002EAD010BD86
:102CB000841D00200246154810B500EB810050F835
:102CC000044C002C21D0208B104320836278618B30
:102CD000062A17D0052A18D1084216D001EA0002A8
:102CE000628388432083204600F0D9FB0120607076
:102CF000628B0821204600F0CEFB2046BDE8104044
:102D0000FFF77CBF31EA0002EBD010BD4C19002068
:102D100070B503460C480D460468208B42B133EA77
:102D2000000101D0062109E098432083022070BDF4
:102D300010EA030101D06183F6E705216383284689
:102D4000FFF7E4FE012070BD78000020814202D32D
:102D500042688A4201D80120704702680A60BFF3C6
:102D60005F8F50E8003F0A689A42F6D140E80012AF
:102D7000002AF2D10020704768B161B10022083901
:102D800002E00246006830B18842FAD12AB10068F8
:102D90001060002070470120704700214160F8E773
:102DA0000146406842684A600B780022022B05D039
:102DB000012B03D0032B01D04260704743680BB155
:102DC0009960426082607047810700D000207047A0
:102DD00070B5044600201546207001226270A17073
:102DE00084F824106060A060E06020612062A0820E
:102DF000E0822083608384F82500E08C18B90548C0
:102E0000FFF757FEE06229462046BDE8704000F01B
:102E10001DB800006804002008B1082901D2012073
:102E200070470144091F002201600A604260104699
:102E30007047000003480021016003490988C180F0
:102E4000704700008C0000205044000870B5C28C10
:102E50001C4D930802D12A88C2F38D03C26A02EB8B
:102E60008302540700D5121F4FF0807442E9021408
:102E700000242646B2F1400242F82460641C0E2C65
:102E8000FAD3C4691462826201632968C90014D547
:102E9000112B12D94FF0FF31103B11EB53014FF0C2
:102EA000CC3305D042F8043C42F8083D491EF9D124
:102EB000C16A121F8A4200D91360C06A02490160C8
:102EC00070BD00004C440008A52E5AE2C1898089DB
:102ED000081A70470122027000224270827042601C
:102EE00002814281103982818908C18170470000C6
:102EF0002DE9F041044640680E464FF0000804F109
:102F00000C05E8B36078012701283ED0022813D0D1
:102F100003285CD10846FFF7CCFD050057D02046BA
:102F2000FFF73EFF0446294600F0B2FA67702046DC
:102F300000F0B5FA214621E02046FFF731FF0646B2
:102F4000002100F0A5FA2189F06904EB81010861F4
:102F5000D5E85F0F401C81B2C5E8501F0028F7D1AB
:102F60002089401C80B22081E189884201D1A4F8E7
:102F700008807770304600F092FA3146174800E03A
:102F80000CE0BDE8F04100F043BA2046FFF708FF2F
:102F900004463246102100F07EFAC7E7A089E18995
:102FA000884216D2208904EB80000661D5E85F0FC5
:102FB000401C81B2C5E8501F0028F7D12089401C71
:102FC00080B22081E189884201D1A4F80880BDE85F
:102FD000F081BDE8F0410320FFF754BD841D0020BF
:102FE00070B5164642680D4612B1417801290BD0E2
:102FF0008189C4890023A14224D19EB11D4C21683E
:1030000092B100F005FA16E0FFF7CAFE04462A4620
:10301000102100F040FA204600F041FA2046FFF768
:10302000EDFD25E0012070BD416021684B60216805
:1030300088600221417020680821C5613046FFF791
:1030400065FDEFE7018900EB81010D6100F10C01E5
:10305000D1E85F2F521C94B2C1E8524F002AF7D139
:103060000189491C89B20181C289914200D1038141
:10307000002070BD7800002070B504468089154698
:103080000026C0B3608904EB800000690860608995
:10309000401C80B26081E189884200D1668160680D
:1030A00010B1607802280BD014F10C04D4E85F0F43
:1030B000401E81B2C4E8501F0028F7D1002070BD27
:1030C0002046FFF76DFE0546002100F0E1F9218959
:1030D000E86904EB810108612089401C80B22081ED
:1030E000E189884200D12681284600F0D8F9284697
:1030F000FFF784FDE2E7FFE73DB10B486268016836
:103100002AB1204600F084F908E0012070BD61601A
:1031100001684E60006884600120607008212846C4
:10312000FFF7F4FCF1E7000078000020002814D03D
:10313000411C13D00C4A4FF6FE7190420CD800EBA4
:103140004002C2EBC0120948036803EBC202521EE0
:10315000B2FBF3F0884204D9084670474FF6FF707F
:10316000704780B27047000000093D0064440008C9
:10317000032101700021418041608160C16070477E
:103180002DE9F0410446408820B1314DA1682A68FC
:10319000914202D0FF20BDE8F081401E0004000CE7
:1031A000608053D12968086AA04209D1E0680862AA
:1031B00008E0C268A24202D1E268C26002E01046A2
:1031C0000028F6D191F824000A6A06E053681BB182
:1031D0009B78834200D91846D268002AF6D18870BD
:1031E000DFF870806168012611B32046FFF7D8FD33
:1031F0000746002100F04CF9384600F050F966808F
:10320000A760386AE0603C622968D8F804008A78D0
:103210008078824201D3384616E00E4800F0F8F874
:1032200039460C4800F0F4F8286846707E700AE0D1
:10323000D8F804108A782968824207D9054800F036
:10324000E7F8286846700020FFF7D8FC0020A2E7C6
:1032500078000020841D002070B51C4D0E460446E9
:103260004188286861B1A268824210D1A1F57F40EF
:10327000FF3803D0491C6180002070BDFF2070BD65
:10328000A060016AE160046201206080F4E776B129
:1032900091788078814203D29070A06800F0DEF8C7
:1032A000606830B12046296800F0B2F808E00120DB
:1032B00070BD2868606029680020486028688460C4
:1032C00009213046FFF722FCF1E7000078000020DA
:1032D00070B51B48012102685170006800F0B4F815
:1032E000184D6C7818E000BF05EBC40148680278FF
:1032F000EAB1012A20D000F0FFF8E878641C84428B
:1033000000D100240F48801CD0E84F1F491EC9B2CD
:10331000C0E8421F002AF7D1A8780028E4D16C70D9
:103320000948FFF73DFDBDE8704000F011B909897B
:1033300089B2FFF797FCE0E78968FFF7D9FDDCE782
:1033400078000020C8180020841D0020054801785E
:1033500011B101214170704703494FF0805008605E
:10336000704700008000002004ED00E0F0B4154D2F
:10337000AB1CEE784FEA0507D3E84F2FB24202D1DB
:10338000BFF32F8F11E0521CD4B2C3E8424F002A82
:10339000F2D100BFD7E84F2F541CB44200D1002413
:1033A000E4B2C7E8434F002BF4D1EB78934205D940
:1033B00005EBC202C2E90101F0BC7047F0BC02207B
:1033C000FFF760BBC8180020104A10B5D368ABB136
:1033D00013469B8A03E08CB12246A48A2344D46816
:1033E0008B42F8D3C460D0600261C46804B120612C
:1033F000591A8182908A401A908210BD0024C460BC
:10340000D060C91A02619182848210BD9C1D002087
:1034100030B502780023022A03D0012A01D0032A02
:1034200000D101238C7800E01046426812B19578F3
:10343000A542F9D24A6041601BB102B19160886037
:1034400030BD0020FBE7000003494A6842600022CB
:103450008260486070470000841D002010B58368BA
:1034600004462BB9607801280ED1084B03E09B6815
:1034700018780028FBD0204600F026F82146BDE849
:1034800010401846FFF7C4BF10BD0000841D002087
:10349000806A01627047806AC0E90812704710B5FF
:1034A000016900290ED0C268CA60C36800223BB11E
:1034B0008B8A848A23448B82C3681961C26000E0CE
:1034C0008A82026110BD0000816839B142684A6099
:1034D0004168002901D0806888607047054906E08E
:1034E0004A68824202D1406848607047114600290C
:1034F000F6D17047841D002010B5416881B1FFF7F7
:103500004FFC0446FFF7CBFF0120607001462046C8
:10351000FFF7BEFF2146BDE810400348FFF778BF24
:103520004188491C418010BD841D00200648006868
:10353000D0E90A10814203D300680449884202D0CE
:103540000120FFF79FBA704778000020A52E5AE2AD
:103550000749022248604270064A1278002A05D0C4
:1035600006C98A4202D0C078FEF7F2BE704700005A
:10357000780000209400002070B5FEF7C1FE002006
:103580000446204A204902E042F82040401C0B88B3
:103590009842F9D31D48342201881D48FEF758FE91
:1035A0001C48008880B240F000421B4801681B485C
:1035B000FEF74EFE1A48082201881A480068FEF7F6
:1035C00047FE194DFF20194AE870EC840021284677
:1035D000FFF7FEFB16480421017044601548017096
:1035E000C460046184821448154905600220687033
:1035F0001248047044700978C170BDE87040FFF74C
:1036000019BC00004C190020484400086C44000814
:10361000840200204C440008704400086804002024
:103620009444000838000020501D0020872A00081C
:10363000841D00209C1D002078000020C818002058
:10364000784400081B4810B5016841F47F0101600F
:1036500000684FF07F4101EA00201649C043143949
:10366000B0FA80F00968C0F10800C1F3022181427C
:1036700000D3481C0F49091F0B686FF0807282400D
:1036800063F317020A60FFF7FFF90B49002808608F
:103690000EDB00F1E021FF2281F8002400F01F0280
:1036A000012191404009800000F1E020C0F80011A4
:1036B00010BD000020ED00E0840000200C4810B593
:1036C0000268012151700068FFF7BEFEFFF73AFA69
:1036D00008480168491C0160FFF758FA00F062FBD6
:1036E0000548FFF75DFBBDE81040FFF731BF000064
:1036F0007800002088000020841D0020002805D0CC
:10370000810702D10178002900D000207047000015
:1037100030B50B4C0023626805E095688D4204D8F3
:1037200013461268491B002AF7D10260816012B16A
:103730009568691A91600BB1186030BD606030BD4A
:10374000700000202DE9F0411E46174680460D46C8
:1037500011F0FF0F00D14D1C1848FFF7AAF9041E05
:1037600016D0280AE762E084E9B242462046E661C4
:10377000FFF72EFB01251248124905E000EB8502F8
:1037800052F8042C32B16D1C0A889542F6D90020FB
:10379000BDE8F081002DFAD000EB850040F8044C24
:1037A0000948E570007818B101212046FEF7C0FDF8
:1037B0002046FFF723FA2846EAE7000084020020AB
:1037C0004C19002048440008940000202DE9F05FC7
:1037D000584DDFF85891DFF8588129684FF0010AF9
:1037E000002618B1CA78AB46824243D14E70FCF72E
:1037F000F0FC29688862FFF799FE2868046A1FE0D8
:103800006068C0B12046FFF7CBFA07460021FFF7FA
:103810003FFE3846FFF743FE87F801A03946464889
:10382000FFF7F6FDE168A4F802A0A760386AE0603F
:103830003C620C4604E0E0686680A660E6600446F0
:10384000002CDDD12868C27808EB820141F8046CB5
:10385000C16A3A48FFF77AFA2868C66299F80010F8
:1038600011B10021FEF764FD35482968FFF76EFAB3
:103870002E6056E03349098888420CD808EB80084E
:1038800058F8045C3DB12846FFF71EFE2846FFF7B6
:1038900006FE2C6A22E0FF20BDE8F09F6068C0B100
:1038A0002046FFF77DFA07460021FFF7F1FD384675
:1038B000FFF7F5FD87F801A039461F48FFF7A8FD7F
:1038C000E168A4F802A0A760386AE0603C620C4698
:1038D00004E0E0686680A660E6600446002CDDD166
:1038E00048F8046C1548E96AFFF730FAEE6299F877
:1038F000000018B100212846FEF71AFD294610489D
:10390000FFF724FA0C48DBF8001040688B788278C7
:103910009A4209D981F801A00748DBF80010FFF7A7
:1039200077FD0020FFF76AF90020B5E7940000203A
:103930004C19002078000020841D0020680400201D
:10394000840200204844000870B51A4D80B11A4A1C
:10395000128890421FD8194A02EB800050F8044C9C
:10396000CCB1A17084F824102868A04205D014E0DE
:1039700028688170286880F8241011484068807891
:10398000884215D90E482968FFF742FD29680120B1
:10399000487000200AE0FF2070BD2046FFF75EFD62
:1039A0006078012804D10648FFF7FAF9FFF726F9F5
:1039B000002070BD78000020484400084C19002009
:1039C000841D002002480068002800D0C07870479D
:1039D0007800002010B5002804D0FFF7A7FBFFF700
:1039E0002FF9402010BD000010B5134C207860B9AD
:1039F0001248400705D1124801681048FFF70CFA39
:103A000008B1852010BDFFF7B7FD0E49FF200968FA
:103A10008870207858B900210B4800F062F80B49F3
:103A2000086000210A4800F0F5F80A490860012002
:103A300020700020607010BD70000020F81300207E
:103A400074440008780000208C44000840000020E6
:103A50007C4400083C00002070B50F4D687808B128
:103A6000002070BD0D4C206890F824100020FFF756
:103A70006BFF2068C178FF2903D1816A203181F36F
:103A80000988616811B9606000202060FFF7DAFDE5
:103A900001206870E4E7000070000020780000203A
:103AA00070B504000BD0216849B162683AB1A068D2
:103AB00028B1D0E9005010B10DB12B780BB1002026
:103AC00070BDD21C22F0030251430C31FEF7C0FB43
:103AD00020888000103081B22846FFF7FBF9A068EB
:103AE00070BD10B5040005D0216819B1606808B137
:103AF00002780AB1002010BD8900103189B2FFF7A9
:103B0000E9F9606810BD3EB504000D464FF0800035
:103B100012D0217801290FD12846FFF707FB024672
:103B2000204601A9FFF7A8FA012801D0102003E0E0
:103B30000DB1402000E00020DDE9011203B030BDEE
:103B400070B50E460400154602D02078012801D039
:103B5000802070BD1046FFF7E9FA02463146204644
:103B6000FFF73EFA012801D0002070BD0DB1C12041
:103B700070BD812070BD70B50C46FFF7BFFD4FF0E2
:103B8000004108B1220C01D0084670BD058BC178F8
:103B9000A0B2FFF759F8284670BD70B50C46FFF784
:103BA000ADFD4FF0004108B1220C01D0084670BDB8
:103BB000058BC178A0B2FFF77DF8284670BD0000E4
:103BC00070B504460D46000C01D086201EE0084664
:103BD0002CB1FFF7ABFA0146A0B2012205E0FFF7D6
:103BE000A5FA014600224FF6FF70FFF791F8022870
:103BF00002D04DB1402008E008200CB1214605E07C
:103C000003490968498B01E000200021324670BD5C
:103C10007800002070B50E46040029D0206838B323
:103C2000606810F1030F23DB032821DCE16829B170
:103C30001048FEF74BFF05001AD000E00025606831
:103C4000E168001D40EA012133462A462068FFF75B
:103C500079FD40B1084901EB8000084950F8040C97
:103C6000826A516370BD1DB129460248FFF784F88E
:103C7000002070BDF81300204C190020352A0008E0
:103C800010B5FFF79FFE002804D0034901EB800028
:103C900050F8040C10BD00004C19002010B5FFF7BF
:103CA0002DFD18B1C18C19B1C46A02E0802010BD8D
:103CB0000024C078FFF78AFDFF2806D01CB12146FA
:103CC0000348FFF759F8002010BD812010BD000007
:103CD000F813002010B5FFF777F820B141690A68A2
:103CE0000169104610BD0020014610BD70B50D469B
:103CF000002806D0D0E9004010B10CB112B10DB1CE
:103D0000002070BDFEF7D5FE060017D1B5B10C48F6
:103D100061680029016803D02046FFF779FB07E0BE
:103D20006160026800215160006884600320607057
:103D30002846FFF7FBF90821FEF7E8FE304670BD84
:103D40007800002070B5164648B1D0E9004534B17E
:103D50002DB12846FEF7FAFF18B1862070BD8020ED
:103D600070BD6068E0B16078032819D136B129468A
:103D70002046FFF7FBFAFFF7E9FA11E02846FEF7C5
:103D800098FE05000CD02046FFF70AF804462946A5
:103D9000FFF77EFB2046FFF782FB2046FEF72EFF53
:103DA000002070BD2DE9F041134E7468002C1CD02A
:103DB000A068124F401E4FF00108A06012E0254697
:103DC00024687460002229463868FEF7DEFA10B1D4
:103DD0000420FEF757FE6879012808D085F8048092
:103DE000002C02D0A0680028E9D0BDE8F081284668
:103DF000E968FFF78DFCF3E7700000204000002029
:103E000010B500290AD00878002807D00548784462
:103E1000FCF7FAFF002801D0002010BD02487844CA
:103E200010BD00004E0700004607000021F00042D0
:103E3000A2F16052B2F5801F01F0004328BFD2F119
:103E40007F6C0BD95FEA001C43EAC20242EB507060
:103E500018BF704728BF20F001007047B2F5801FDF
:103E6000BCBF184670474FEA410C1CF5001F02D238
:103E7000084600F02CBA70B500F02EF90000008959
:103E8000FFF7F6BF4FF00040A0F58000704700003C
:103E900002494FF0000000F021BA00BF0000F87F97
:103EA000491058BFC1F140415B1058BFC3F14043B6
:103EB0008B42EFF30080704710F0004248BF404251
:103EC000B0FA80F310FA03F10AD0C3F11D0303F531
:103ED00080634FEA415002EB035202EBD12170475D
:103EE0004FF000007047B0FA80F310FA03F10AD0E7
:103EF000C3F11D0303F580634FEA41504FEA0352BB
:103F000002EBD12170474FF00000704751EA030CDB
:103F100017D41CF5801F58BFBCF5801F00F1068028
:103F2000994218BF704708BF9042704707D711F5F4
:103F3000801F58BF13F5801F19D4994270478942DA
:103F400070471CF5801F08D5BCF5801FF7D58B4244
:103F500018BF704708BF824270474FF4001C1CEB2B
:103F6000410F38BF1CEB430F01D28B42704770B535
:103F700000F0B2F8922449004FF000514FF0805306
:103F8000FFF78EBFDFF848C170B51CEA111E1EBFD7
:103F90001CEA13159EEA0C0F95EA0C0F00F06F80D7
:103FA00081EA030423EA4C134EEAD47E21EA4C1141
:103FB00041F4801143F48013AE44A1FB024CA0FBFA
:103FC0000365AEF17F7E361955EB0C05A1FB034C62
:103FD0004CF10003A0FB021C16EB0C06654153F1EB
:103FE0000003094218BF46F0010613F4007F0BD10D
:103FF0004FEA03314FEA0530340341EA155140EAF4
:1040000016506FF003020AE04FEAC3214FEAC520C1
:10401000F40241EA555140EA56506FF0020202EBB9
:104020002E4201EB025585EACE710AD05FEA440CBC
:1040300018BF24F0004450F1000041F1000120EAD3
:10404000D47040F2FE7C624500D270BDA84214BF1D
:104050004FF080444FF04044002E08BF0024BEF1D2
:10406000806FA8BFA1F1C041BDE8704080F282809E
:104070004FF0000001F1C04101F0004170479EEA9D
:104080000C0F0CEA131518BF95EA0C0F06D04FF071
:10409000000081EA030E0EF0004170BD00F01CF834
:1040A0008900013E00F007B800F009B84FEA430C60
:1040B0005FEA5C5C08D081EA030100F05BB84FEA7C
:1040C000410C5FEA5C5CF6D14FF00000014970479B
:1040D0000000FF070000F87F0EF1020E2EF0030E25
:1040E0005EF8046B364205D4012A43EB030515F54F
:1040F000001F12D8012841EB010C1CF5001F0CD841
:104100000ED14FEAD17C15F5001F0CEB4C0C0CF1D5
:10411000020C08BF4CEBD37C04E04FF0080C01E02C
:104120004FEAD37C0CEB4C0526FA05F606F00706A1
:10413000B6F1040C06D20EEB860CBDE870404CF0D4
:10414000010C6047DFE80CF0090B02024FF0004160
:104150004FF00000A1F5002170BD1946104601285E
:1041600051EB010418BFD4F5001484BF002001F006
:10417000004170BD0808A0F500114FEA31017047F9
:1041800053EA010C17D41CF5801F58BFBCF5801FE3
:1041900000F106808B4218BF704708BF824270470B
:1041A00007D713F5801F58BF11F5801F19D48B4214
:1041B00070479B4270471CF5801F08D5BCF5801FD7
:1041C000F7D5994218BF704708BF904270474FF427
:1041D000001C1CEB430F38BF1CEB410F01D299426E
:1041E00070470FB40CBC03BCFFF7C1BE43004FEADD
:1041F000D30C4FEA3C0C43401FBF40070CF1605109
:1042000013F0FE4F70471CF0006F03D100200CF03C
:10421000004170470CF0004343EA507010B540EA8B
:10422000CC0000F00EF800BF000000924FEA000141
:10423000FFF7A0BF4FF000414FF00000A1F50021B3
:1042400070470EF1020E2EF0030E5EF8044B24426E
:1042500004D44FEA4102B2F17F4F11D84FEA400334
:10426000B3F17F4F0CD80ED14FEAD07CB2F17F4F23
:104270000CEB4C0C0CF1020C08BF4CEBD17C04E0B5
:104280004FF0080C01E04FEAD17C0CEB4C0324FA10
:1042900003F404F00704B4F1040C06D20EEB840C12
:1042A000BDE810404CF0010C6047DFE80CF0070857
:1042B00002024FF00040A0F5800010BD0846420009
:1042C00018BFD2F1807288BF00F0004010BDFF21FE
:1042D00041EAD050C0057047FCF7BDBA0CF00F039F
:1042E000092B08BF082000F059800A2B0BD0082B9F
:1042F00018BF704708BF1CF0400F0AD04FF00000F5
:104300004FF0000170471CF0400F18BF4FF0004005
:1043100070471CF0100F08D020F0704300F07F426F
:1043200042EAD3014FEA4370704700F0604021F049
:104330007F4242EA000201F07F4040EA727070471B
:104340004FF0FF0C4CF4E06C1CEA11531CBF9CEACC
:10435000030C9445C2BFDA4201EB02517047002BB7
:104360000DD0BCF1000F0FD0002A01F00041A4BF16
:1043700041F0E04141F07F614FF00000704701F0F3
:1043800000414FF00000704750EA01334FF09B0CA2
:1043900018BF4CF0806C7FF47BAD70471CF4801F1D
:1043A00011D01CF4E02F03D06FEACC3149007047E4
:1043B0004FF04050EFF3008222F0704242EA0002D8
:1043C00082F3008870474FF0000070470C00000037
:1043D000140000000C0000200C000000D40100209C
:1043E0000C00000014020020151A00080200000052
:1043F0000100000000000000C51A000800000000D5
:104400000100000000000000D118000800000000BA
:10441000010000000000000059190008020000001F
:104420000100000000000000F91900080000000071
:104430000100000000000000391800080100000021
:10444000010000000000000009000000F00102016E
:1044500005000100DF2E0000010000000200010045
:1044600052000400E803000000000000E00100002A
:10447000900F0000D004000010000000592A00082E
:104480000200000001000000C8000000040000005D
:104490006402002000000000FD270008000000006A
:1044A00001000000E803000002400000000000A03E
:1044B0000000000005400000000000C800000000EF
:1044C0000C4000000000409C00000000194000006B
:1044D0000020BCBE0000000034400000BFC91B8E9D
:1044E00000000004B5400000504BCFD06607E2CF7B
:1044F000010000006C4100003E8251AADFEEA734AB
:1045000001000000D9420000DCB5A0E23A301F975C
:10451000FFFFFFFFB4450000FD25A0C8E9A3C14F80
:10452000FFFFFFFFFF3F00000000008000000000D1
:10453000FF3F0000000000800000000078450008F8
:104540000000002098000000280100081046000824
:104550009800002080230000440100081C00000097
:1045600043000000F8FFFFFF0C0000000E000000F9
:104570000F0000002E0000000000000000000000FE
:104580000000000098000020D8000020000000007B
:10459000000000000000000000000000000000001B
:1045A000000000000000000000000000000000000B
:1045B00000000000000000000000000000000000FB
:1045C00002040608000000000102030401020304C3
:1045D0000607080900A24A040000000000000000CD
:1045E00001020304060708090000000000000000A3
:1045F00000000000000000000000000000000000BB
:1046000000000000000000000000000000000000AA
:04000005080000ED02
:00000001FF
