:020000040800F2
:10000000A8330020FD0200080503000807030008CC
:10001000090300080B0300080D030008000000009E
:100020000000000000000000000000003502000891
:100030001103000800000000AD020008E9020008FA
:100040001703000817030008170300081703000828
:100050001703000817030008170300081703000818
:100060001703000817030008170300086D1800089D
:100070008D180008AD180008CD180008ED1800080C
:100080000D1900082D1900081703000817030008B0
:1000900017030008170300081703000817030008D8
:1000A00017030008170300081703000817030008C8
:1000B00017030008170300081703000817030008B8
:1000C00017030008170300081703000817030008A8
:1000D000E120000817030008E123000817030008C7
:1000E00017030008170300081703000800F002F8C0
:1000F00000F04BF80AA090E8000C82448344AAF177
:100100000107DA4501D100F040F8AFF2090EBAE874
:100110000F0013F0010F18BFFB1A43F0010318473B
:10012000D0490000F0490000103A24BF78C878C1D7
:10013000FAD8520724BF30C830C144BF04680C60ED
:10014000704700000023002400250026103A28BF35
:1001500078C1FBD8520728BF30C148BF0B60704739
:10016000662904F00784002070471FB59DE803004E
:1001700000F0A0FA00F00BFD04000020002104F0C4
:10018000D1F8E0601FBD10B510BD00F02AFE114689
:10019000FFF7EBFF0FB400F00BF80FBC02F0AEFD61
:1001A00000F0A8F903B4FFF7EEFF03BC00F012FE65
:1001B00004B002F0C7FD0448002102F0A5FE02F0E1
:1001C000D3FD00F097F900004C4A000880F309883D
:1001D0007047EFF309807047684680F30988044848
:1001E0000078C00714BF0220032080F314887047F2
:1001F0000C4A0008DFF818C0EFF305831B0618BF90
:100200006047EFF31483DB0708BF604700DF7047E8
:10021000D72F0008DFF818C0EFF305831B0618BFBF
:100220006047EFF31483DB0708BF604700DF7047C8
:1002300071320008EFF30980816911F8021CF1B9ED
:1002400090E80F10E047EFF3098C8CE80700144B9F
:1002500093E8060091420FD039B12CE9F00FC1F8B4
:1002600028C00CB403F0F4FB0CBC1A60D2F828C010
:10027000BCE8F00F8CF309886FF0020E704710B5E0
:10028000084A1268914209D8074C54F8214090E876
:100290000F10A047EFF3098C8CE80F0010BD000091
:1002A0007C000020581600085816000803F0A2FA37
:1002B0000C4B93E80600914210D0EFF3098C2CE927
:1002C000F00FC1F828C00CB403F0C2FB0CBC1A60DC
:1002D000D2F828C0BCE8F00F8CF309886FF0020E4A
:1002E000704700007C00002003F07AFCE0E700008B
:1002F00002F070FE03F074FCDAE700000948804762
:1003000009480047FEE7FEE7FEE7FEE7FEE7FEE7F7
:10031000FEE7FEE7FEE7FEE704480549054A064B0F
:100320007047000071230008ED000008A82D002090
:10033000A8330020A82F0020A82F002000487047D5
:10034000442D00200B3020F0070070472DE9F041CC
:1003500017460E460446FFF7F5FFA042054633D97F
:10036000002F1CBF06F10C0002F0B4F9304674688F
:10037000F4B12168A94217D305F1080291423CBFAC
:100380006168416007D3626861194A602268521B44
:100390000A6041602560002F1CBF06F10C0002F0CE
:1003A000BFF9201DBDE8F08120466468002CE0D133
:1003B0002946304600F06AF90028D7D1002F1CBF2B
:1003C00006F10C0002F0ACF90020BDE8F08110B598
:1003D000044600F052F901682046BDE810400122B1
:1003E000B4E770B516460D46041F002808BF70BD5F
:1003F000002E1CBF05F10C0002F06CF92B4658686A
:10040000002818BFA04238BF0346F8D31968CA189D
:10041000A24218BF5C6003D122681C4611441960D7
:1004200021680A19824218BF606004D14268626084
:10043000006808442060002E1CBF05F10C0002F08B
:100440006FF970BD10B5044600F017F90168204639
:10045000BDE810400122C4E70FB41CB50C0007AA88
:10046000009001D02044401E074B7B446946019018
:10047000069800F06CFB002C03D06946002000F0C9
:1004800079FB1CBC5DF814FB110700002DE9F0415D
:100490000E460446002020622046E168884730B3BB
:1004A000252805D0D4E901219047206A401CF2E7B5
:1004B000E168204600278847050018D0A5F14100D3
:1004C000192802D820354FF40067324629462046C5
:1004D0002760FFF745FE40B1012804D0F61D26F045
:1004E00007060836D8E7361DD6E72846DAE7206A39
:1004F000BDE8F08110B50446AFF300802046BDE8AA
:100500001040FFF74FBE032A40F2308010F0030C7A
:1005100000F0158011F8013BBCF1020F624498BF56
:1005200011F801CB00F8013B38BF11F8013BA2F1F3
:10053000040298BF00F801CB38BF00F8013B11F06E
:10054000030300F02580083AC0F0088051F8043B0E
:10055000083A51F804CBA0E80810F5E7121D5CBF7B
:1005600051F8043B40F8043BAFF30080D20724BFAE
:1005700011F8013B11F801CB48BF11F8012B24BF42
:1005800000F8013B00F801CB48BF00F8012B704791
:1005900010B5203AC0F00B80B1E81850203AA0E81E
:1005A0001850B1E81850A0E81850BFF4F5AF5FEA52
:1005B000027C24BFB1E81850A0E8185044BF18C905
:1005C00018C0BDE810405FEA827C24BF51F8043BAC
:1005D00040F8043B08BF7047D20728BF31F8023B00
:1005E00048BF11F8012B28BF20F8023B48BF00F894
:1005F000012B70474FF0013C50F8042B51F8043B9D
:100600009A4221D1A2EB0C03934313EACC1317D1E6
:1006100050F8042B51F8043B9A4215D1A2EB0C037D
:10062000934313EACC130BD150F8042B51F8043B3D
:100630009A4209D1A2EB0C03934313EACC13DBD00B
:100640004FF00000704700BFD01A01BAB1FA81F133
:1006500001F0180122FA01F0CB40C1F12001DBB218
:10066000C0B2C01A2CFA01F3D11A914311EAC31196
:10067000E6D1704770477047704710B5FFF75EFED0
:10068000083010BD704770477047704738B5044652
:100690000A4600206946AFF30080002808BF38BD35
:1006A00002460099204600F077FA012038BD01206B
:1006B00000F088BBF8B5AFF30080054600200C467B
:1006C000102000BF0646A819A0420DD9324669463F
:1006D0000020AFF30080070008BF00F073FB009814
:1006E000A04218BF0546C419FFF7C7FF05600746BB
:1006F000F01D20F007004619284600F00AF8B44221
:1007000008BFF8BDA21B31463868BDE8F84000F0CC
:1007100043BA00210160C0E901100C3001F0EABFCA
:100720001020704770472DE9FF4F0C461E464FF0D2
:10073000FF378BB0D2E90001DDF860800A908A466D
:10074000C1F30A5505B93D46002108464FF00000A7
:10075000BAF1000F00F4400005DA00EB80004FF41E
:10076000400101EA50004FEA9059B9F1010F00DD54
:10077000B9460A9850EA4A000ED044F61050A5F245
:10078000FF3545432F14B8F1000F1ED07542291EC6
:100790001EDDC9F100021CE0B8F1010F4FF00000AE
:1007A00001D0302103E0F24305E02154401CB04267
:1007B000FBDB30460022002121540B99C1F8088050
:1007C000C1E900200FB0BDE8F08FBD1B6D1CDEE756
:1007D0004A4600DA694206A800F082FA06AB93E8BE
:1007E000070003AB83E8070050460A9900F06CFB52
:1007F0008DE80700A0F500501F3800900398002DE9
:100800000ADD42F21F014A460844002303A903906F
:10081000684600F0D5FD09E0A0F500504A461F38B3
:10082000002303A90390684600F0DFFD8DE8070070
:100830000004000C03D04FF0FF30410800E01046E8
:10084000B8F1000F03D00022009215461EE0751E7D
:1008500005D400F0C0F9303262556D1EF9D5B346AB
:100860000122084302D000227F1C04E020783028B7
:1008700001D100227F1E002A099784D01DE0112D8E
:1008800007DA00F0A8F9303262556D1C50EA010217
:10089000F5D1084302D00098C8B10EE00021681ECF
:1008A00005E0235C625C63542254401E491C814273
:1008B000F7DBAB46A81B401E0990002004F80B0094
:1008C0000B98099AC0F80880C0E9002B7AE7112636
:1008D0004FF0000857E72DE9F04F88460446D21D37
:1008E00022F0070191B0D1E90001CDE90A0101F040
:1008F000BAFE02460B98C00F01D02D2007E02068F9
:10090000810701D52B2002E0202101EAC000032A43
:10091000099001D0072A05DB03464146204600F036
:100920009FF90BE12078800601D5E06900E0062000
:10093000B8F1650F814606D0B8F1660F18D0B8F14E
:10094000670F70D131E00020B9F1110F009001DB89
:10095000112301E009F101030AAA01A90CA8FFF77C
:10096000E2FEDDE90C70002609F10105834647E04F
:1009700001204B4600904FF000470AAA01A90CA89D
:10098000FFF7D1FEDDE90DB00C995D46002610B9E8
:1009900009F101000D18B9EB050003D4C0F1FF36D1
:1009A00009F10105A5EB09002BE0B9F1010F01DA0E
:1009B0004FF001090020B9F1110F0090484601DD08
:1009C000112300E003460AAA01A90CA8FFF7ABFE19
:1009D000DDE90C704D4600268346207800070AD4D6
:1009E000AB4500DA5D4601A8012D04DD411911F87F
:1009F000011C302907D04F4502DA17F1040F04DA41
:100A0000012082460FE06D1EEEE7002F02DCED1B99
:100A10003E4403E0781CA84200DD7D1CB81B00F1B9
:100A2000010A4FF000472078000703D4AA4501DBF4
:100A30004FF0FF3A0021B7F1004F0DF143088DF858
:100A4000431024D002202B23002F01DA7F422D23D4
:100A50000A21021EA0F1010000DC5FB197FBF1FC4E
:100A600097FBF1F201FB1C7C17460CF1300C08F8E7
:100A700001CDEEE7A8F1010003702188090501D539
:100A8000452100E06521A0F1010800F8011C09984A
:100A90000FA9A1EB0807FF1D00B10120411901EBCF
:100AA000EA70A1693844081A401EA0612078C00687
:100AB00002D42046AFF30080099828B1D4E901217F
:100AC0009047206A401C20622078C00622D520462C
:100AD000AFF300801EE0002E04DBB34502DD01A869
:100AE000805D00E03020D4E901219047206A401C5D
:100AF0002062761CAAF101005FEA000A0AD100F028
:100B000046F8C0680168405CD4E901219047206A3A
:100B1000401C2062281EA5F10105DCDC07E0D4E9B9
:100B2000012118F8010B9047206A401C2062381EF2
:100B3000A7F10107F3DC2046AFF30080032011B0DA
:100B400041E6000001694A1C02610878704700B55F
:100B50008FB0CDE901310021059105497944CDE9F6
:100B6000031011466846FFF791FC0FB000BD00006E
:100B7000E5FFFFFF0A6802F8010B0A607047D1E940
:100B800000239A4202D2531C0B601070704710B5BC
:100B9000FFF7D4FB203010BD30B404468C464368C8
:100BA000002B18BF634538BF1846F8D303681844B4
:100BB000604507D0C81C20F0070000F1040CACEB26
:100BC0000100121A2146CCF8002030BC00220CF1A2
:100BD0000400FFF706BC30B5B0F10A024FEA900EF0
:100BE00071F100034EEA817EB0EB0E0061EB9101E2
:100BF0004FEA101E4EEA017E10EB0E0041EB111180
:100C00004FEA102E4EEA016E10EB0E0041EB11215F
:100C10004FEA104E4EEA014E10EB0E0041EB11412F
:100C2000401841F100014FEAD00040EA41704FEA1C
:100C3000D10110EB80054FEA810444EA907444EB43
:100C400001046D1944EB0404521BA3414FF000034F
:100C500048BF0A3200D530BD401C41F1000130BD13
:100C60002DE9F0411F46044603260168072A01F4D6
:100C7000006004DB08B116A505E016A503E008B185
:100C800015A500E015A521F010002060A069C01E88
:100C9000A0610FB1401EA0612046AFF300804FB1AC
:100CA000D4E9012138469047206A401C2062C01CCC
:100CB000206206E0206AFAE7D4E9012115F8010B69
:100CC0009047761EF8D22046AFF30080BDE8F08151
:100CD0004E414E006E616E00494E4600696E6600E0
:100CE0002DE9F047814616468AB0354878440DC84C
:100CF0008DE80D0032487844801C03AC0DC884E8B0
:100D00000D0041F69B300844372190FBF1F290FB37
:100D1000F1F5A5F1800501FB12041B3C02D56442EC
:100D2000012000E00020DFF898A080460027FA4468
:100D3000AAF1BE0A0EE0E0070AD03246684607EB89
:100D4000470101230AEB810100F04FFB8DE807000A
:100D500064107F1C002CEED1194F7F44AE3F19E088
:100D6000E80715D007EB04100DF1180A90E80E0003
:100D70008AE80E00C068F04201D198190890324606
:100D8000012306A903A800F030FB03AB83E80700AA
:100D90006D10641C002DE3D14FF00103324669460B
:100DA000B8F1000F03A802D000F00AFB01E000F048
:100DB0001CFBC9E90001C9F808200AB0BDE8F087AA
:100DC000E83D000010B500F037F8BDE8104000F035
:100DD0002DB8000001491820ABBEFEE72600020036
:100DE00070477546FFF7AAFAAE46050069465346B6
:100DF00020F00700854618B020B5FFF78DFABDE852
:100E000020404FF000064FF000074FF000084FF071
:100E1000000B21F00701AC46ACE8C009ACE8C00902
:100E2000ACE8C009ACE8C0098D467047002801D085
:100E3000FFF7D0BF7047000010B5012805D0002192
:100E400003A000F021F8012010BD09A1F8E700007F
:100E500053494752544D454D3A204F7574206F66A3
:100E60002068656170206D656D6F7279000000000B
:100E70003A2048656170206D656D6F727920636FEF
:100E8000727275707465640070B505460C460A2070
:100E900000E06D1C00F011F835B128780028F8D179
:100EA00002E0641C00F009F814B120780028F8D1A1
:100EB000BDE870400A20AFF3008008B569468DF8A0
:100EC00000000320ABBE08BD5FEA400C08BF91F0F4
:100ED000000F4FEA8C234FEAC12243EA51514FEAF7
:100EE0001C5018BF00F5F0404FEA300018BF41F029
:100EF00000415FEA6C5C00F02980BCF1FF3F08BF55
:100F000040F080407047130C06BF12044FF0100CE5
:100F10004FF0000C130E04BF12020CF1080C130F5B
:100F200004BF12010CF1040C930F04BF92000CF1EA
:100F3000020CD30F04BF52000CF1010C11464FF00C
:100F40000002A0F11F00A0EB0C00704711F0004F51
:100F500008BF704731F000413FF4D5AF0B0C06BF1E
:100F600009044FF0100C4FF0000C0B0E04BF0902E7
:100F70000CF1080C0B0F04BF09010CF1040C8B0FD2
:100F800004BF89000CF1020CCB0F04BF49000CF127
:100F9000010CCCF12003A0EB0C0022FA03F302FABF
:100FA0000CF241EA030100F10100704720F07F4C90
:100FB00080EA030023F07F47ACEB070303F57C5383
:100FC00000F0004003F1FF032DE980494FEA154B83
:100FD00009B44FEA144325EA0B4E24EA03480FF202
:100FE000042606EB132749083E785FEA320203FB2A
:100FF0000667C7F5000707FB06F64FEA54374FEAC6
:10100000D64606F1020607FB066CCCF1005C4FEAFF
:101010001C472CEA074C07FB06F40CFB06F504EB17
:1010200015464FEA961634BF00204FF000404FEAB5
:10103000D13706FB07FC4FEA1C4C0CFB0BF7D21B0D
:1010400003FB0CF761EB07010CFB0EF7B0EB07405D
:1010500072EB17420CFB08F734BFA2EB0742B2EB6E
:10106000074261EB17414FEA0C444FEA910706FB38
:1010700007FC4FEA1C4C0CFB0BF7B0EBC74072EBC4
:10108000573203FB0CF734BFA2EBC742B2EBC742A7
:1010900061EB57310CFB0EF7B0EBC70072EB5772E8
:1010A0000CFB08F734BFA2EBC702B2EBC70261EB3F
:1010B0005771039F4FEA816141EA921104EBCC041E
:1010C0004FEAD1374FEA826206FB07FC42EA9012F0
:1010D0004FEA80604FEA1C4C0CFB0BF7D21B03FB62
:1010E0000CF761EB07010CFB0EF7B0EB074072EB5E
:1010F00017420CFB08F734BFA2EB0742B2EB0742E2
:1011000061EB17414FEA8C554FEA910704EB9C24A1
:1011100006FB07FC4FEA1C4C0CFB0BF7B0EBC7407F
:1011200072EB573203FB0CF734BFA2EBC742B2EBB2
:10113000C74261EB57310CFB0EF7B0EBC70072EB07
:1011400057720CFB08F734BFA2EBC702B2EBC70221
:1011500061EB577115EB4C254FEA816141EA921121
:101160004FEA82624FEAD13742EA901206FB07FC4F
:1011700044F100044FEA80604FEA1C4C0CFB0BF773
:10118000D21B03FB0CF761EB07010CFB0EF7B0EB76
:10119000074072EB17420CFB08F734BFA2EB074283
:1011A000B2EB074261EB174115EB1C154FEA813199
:1011B00041EA92414FEA823242EA90424FEA80305D
:1011C0004FEA0C7644F1000448EA03434EEA0B4828
:1011D0004FF0000EB2EB080C71EB030724BF624620
:1011E00039464EEB0E0E4FF0000B001852414941AC
:1011F0004BEB0B0BB2EB080C71EB03077BF1000B15
:1012000024BF624639464EEB0E0E4FF0000B00181D
:10121000524149414BEB0B0BB2EB080C71EB03074E
:101220007BF1000B24BF624639464EEB0E0E51EAAD
:10123000020718BF46F0010616EB0E7655F10002C4
:1012400054F1000103D5BDE88901BDE80088BDE87F
:101250008901BDE80048B619524141EB0101A3F1F3
:101260000103704780807F7E7D7C7B7A79787776FA
:1012700076757473727171706F6E6E6D6C6C6B6A73
:101280006A69686867666665646463636261616011
:10129000605F5F5E5E5D5D5C5C5B5B5A5A5959588E
:1012A00058575756565555555454535352525251F8
:1012B000515050504F4F4F4E4E4D4D4D4C4C4C4B4E
:1012C0004B4B4A4A4A494949484848474747474695
:1012D00046464545454444444443434343424242D1
:1012E00042414141002B9C4630D477002BD01CB5A5
:1012F0004FEA370703B44FF010004FF01001BAF176
:10130000000F06D0BCF1000FDCBF40F0080040F039
:1013100008014FF000000FBCBDE810400BF1010BBD
:10132000BBF1010F08BF5FEA170722BF12F10102EC
:1013300011F101014FF0004143F1000300F00040C2
:1013400043EA00007047F9D35708D0E746EA06465B
:1013500013F1400F4FEA16461FDD13F1200FDFBFD8
:1013600016430A46002120335B42BED0C3F120075A
:1013700046EA064602FA07F74FEA164646EA070625
:10138000C3F1200722FA03F201FA07F721FA03F169
:101390004FF0000342EA0702A7E746EA020646EAE0
:1013A00006464FEA164646EA0106BCBF46EA06462E
:1013B000360C4FF000034FF000024FF0000194E7AD
:1013C0002DE9804C9A46934670B491E8380007C8DE
:1013D00031EA400C48BF34EA430C03D5FFF7E6FD81
:1013E000FFF780FFF0BCBDE8008C2DE9804C9A46E9
:1013F000934670B491E8380007C810F0804F08BFDA
:1014000013F0804F03D100F005F8FFF76BFFF0BC3D
:10141000BDE8008C20F07F4780EA030023F07F4C7A
:1014200007EB0C03A3F57C5300F00040A3F1FE038F
:1014300092F0000F00F0B38095F0000F00F077807D
:101440002DE901494FEA11404FEA144621EA0048CC
:1014500000FB06FC24EA064708FB06F607FB08F833
:1014600000FB07F718EB06484CEB164C4FEA124B03
:1014700018EB07484FEA15464CEB174022EA0B4E93
:101480000BFB06FC25EA06470EFB06F607FB0EFEE5
:101490000BFB07F71EEB064E4CEB164C4FF000060D
:1014A0001EEB074E4CEB174B18EB0B0840F10000FE
:1014B00018EB0E0B58EB000840F100008F1A4FF0AC
:1014C00000013CBFC943661B14BFB5EB040C0021EF
:1014D0003CBFC943F61B4FEA17444EEA8E0E27EA7B
:1014E00004454FEA1C4704FB07622CEA074C05FB46
:1014F00007F70CFB05F604FB0CFC16EB074642EB6A
:10150000174216EB0C4642EB1C421BEB060658EB4F
:101510000202414146EA9E0601D5BDE80189B6199D
:10152000524141EB0101A3F10103BDE801894FEAFA
:1015300014454FEA114724EA054621EA074C05FB0A
:1015400007F406FB07F70CFB06F105FB0CFC11EB9F
:10155000074144EB17444FEA124711EB0C4144EBAF
:101560001C4422EA074C05FB07F206FB07F70CFBBD
:1015700006F605FB0CFC16EB074642EB174216EB92
:101580000C4642EB1C456A1854F1000148BF7047F5
:10159000B619524141EB0101A3F10103704795F0E7
:1015A000000F37D04FEA11424FEA144721EA0246B2
:1015B00024EA074C02FB07F106FB07F70CFB06F4D5
:1015C00002FB0CFC14EB074441EB17414FEA1547B3
:1015D00014EB0C4441EB1C4125EA074C02FB07F5D8
:1015E00006FB07F70CFB06F602FB0CFC16EB0746A6
:1015F00045EB174516EB0C4645EB1C42121951F111
:10160000000148BF7047B619524141EB0101A3F1F7
:10161000010370474FEA14454FEA114724EA054693
:1016200021EA074C05FB07F106FB07F70CFB06F266
:101630004FF0000605FB0CFC12EB074241EB174193
:1016400012EB0C4251EB1C4148BF7047921841EB22
:101650000101A3F1010370470000000000B587B04D
:1016600001214FF4017000F0B9FC4FF4804000F00C
:1016700099FC0020029001208DF80C008DF80D00DF
:101680004FF4602004900020059001208DF8180090
:1016900002A9174800F050F8052301220721144839
:1016A00000F072F800208DF807008020ADF80400EB
:1016B00003208DF8060001A90E4800F005FB01216A
:1016C0000B4800F019F80A4800F0BAF800BF0848C3
:1016D00000F027F80028FAD1054800F0C1F800BF53
:1016E000034800F014F80028FAD107B000BD00004C
:1016F000002401400008014021B1826842F001024B
:10170000826003E0826822F0010282607047014635
:1017100000208A6802F004020AB1012000E00020E3
:101720007047014600208A6802F008020AB10120D1
:1017300000E000207047000030B502460020002382
:1017400050680F4C20400D790C6844EA0524204372
:10175000506090680B4C2040D1E902542C434D79E5
:1017600044EA450420439060D06A20F470000C7C69
:10177000641EE4B2234340EA0350D06230BD00004F
:10178000FFFEF0FFFDF7F1FFF0B504460D46002027
:101790000021092D11DDE068A5F10A0606EB4607D8
:1017A000072606FA07F18843A5F10A0606EB460666
:1017B00003FA06F10843E0600CE0206905EB4507F9
:1017C000072606FA07F1884305EB450603FA06F1FA
:1017D00008432061072A0FDA606B561E06EB860766
:1017E0001F2606FA07F18843561E06EB860605FA01
:1017F00006F10843606322E00D2A0FDA206BD61F42
:1018000006EB86071F2606FA07F18843D61F06EB6C
:10181000860605FA06F10843206310E0E06AA2F1AB
:101820000D0606EB86071F2606FA07F18843A2F18C
:101830000D0606EB860605FA06F10843E062F0BDE8
:10184000816841F008018160704721B1826842F4EB
:10185000A002826003E0826822F4A00282607047E6
:10186000816841F0040181607047704710B50548F8
:10187000006800F00F04034844602046FFF7F5FFBE
:1018800010BD0000000002407047000010B5054880
:101890000068C0F303142001024948602046FFF7A6
:1018A000F3FF10BD000002407047000010B505486E
:1018B0000068C0F303242002024948602046FFF775
:1018C000F3FF10BD000002407047000010B505484E
:1018D0000068C0F303342003024948602046FFF744
:1018E000F3FF10BD000002407047000010B505482E
:1018F0000068C0F303442004024948602046FFF713
:10190000F3FF10BD000002407047000010B505480D
:101910000068C0F303542005024948602046FFF7E1
:10192000F3FF10BD000002407047000010B50548ED
:101930000068C0F303642006024948602046FFF7B0
:10194000F3FF10BD0000024010B500F0BFFC0248DC
:1019500000680249086010BD6000002000000020FF
:10196000064A1268064BB2FBF3F202FB00F100BF1D
:101970000A1EA1F10101FBD1704700000000002008
:10198000808D5B0008B5002000908346012120482F
:10199000FFF75BFF1E484C3000681FFA80FB35E004
:1019A0000099ABEB0100002801DB014600E0414259
:1019B000142923DBCDF800B04FF0FF311548006843
:1019C00001F008FA824603208AF80000584602F027
:1019D00049FE06464FF066320F4B02F057FE0446B2
:1019E00000220E4B02F0E6FC804602F0B1FCCAF881
:1019F000040051460748006801F029FA642001F00C
:101A000095F903484C3000681FFA80FBC8E70000D6
:101A1000002401402C00002066660A400000B0400F
:101A20000EB54FF0FF313248006801F005FA8DE83D
:101A300007005CE0019C207801281CD0022804D01B
:101A400003282ED0042848D139E00121002000F0DD
:101A500075FF00F045FF0121002000F06FFF25A079
:101A600001F00CF8201D01F009F82146204800681B
:101A700001F0D4F932E00121002000F05FFF00F016
:101A80002FFF0121002000F059FF1BA000F0F6FFFE
:101A9000201D00F0F3FF21461548006801F0BEF953
:101AA0001CE00021032000F049FF0521606800F0E0
:101AB000F9FE21460E48006801F0B0F90EE0002161
:101AC000032000F03BFF0521606800F0EBFE21469B
:101AD0000748006801F0A2F900E000BF00BF4FF026
:101AE000FF310348006801F0A7F98DE80700A1E77E
:101AF0002C00002055523A0053503A0088B000257F
:101B0000691E012001F0F4F901AB07C3012123484C
:101B1000006801F0D5F940E000F0DAFAC4B20D2D0A
:101B200007DA0D2C05D02846691CCDB204A90C5447
:101B300027E04FF0FF311A48006801F04BF90646E4
:101B4000012030700D2204A9301DFEF721FD314621
:101B50001348006801F07BF9002708E004A8C15D84
:101B60000A221048006801F09FF9781C47B2AF4282
:101B7000F4DB0A2211460B48006801F095F90025B4
:101B800000BF4FF0FF31012001F0B2F901AB07C3F4
:101B900001210248006801F093F9BDE71C00002014
:101BA0002C000020240000200EB54FF0FF310A4821
:101BB000006801F06DF98DE807000BE00199C8B2EB
:101BC00000F08EFC4FF0FF310348006801F060F92F
:101BD0008DE80700F2E70000280000200EB500267F
:101BE000711E012001F084F98DE8070001212548CC
:101BF000006801F065F944E000F0EAFBC5B20D2E83
:101C000007DA0D2D05D03046711CCEB21E490D5499
:101C10002BE04FF0FF311D48006801F0DBF804466F
:101C2000022020700D221849201DFEF76CFC214671
:101C30001648006801F00BF900270CE01248C15D5E
:101C40000A221348006801F02FF920223846791C37
:101C50004FB20D490A54B742F0DB0A2211460C4834
:101C6000006801F021F9002600BF4FF0FF3101208C
:101C700001F03EF98DE8070001210248006801F0FB
:101C80001FF9B9E70C0000209C0000202C00002068
:101C9000240000200EB54FF0FF310A48006801F023
:101CA000F7F88DE807000BE00199C8B200F018FCC6
:101CB0004FF0FF310348006801F0EAF88DE80700B3
:101CC000F2E70000240000202DE9F0410246002543
:101CD0000026002000230024002791F803C00CF008
:101CE0000F0591F803C00CF0100CBCF1000F03D0ED
:101CF00091F802C04CEA050591F800C0BCF1000F54
:101D000031D0146800202BE04FF0010C0CFA00F3E6
:101D1000B1F800C00CEA03069E4220D183004FF0C8
:101D20000F0C0CFA03F7BC4305FA03FC4CEA04045D
:101D300091F803C0BCF1280F06D14FF0010C0CFA4A
:101D400000FCC2F814C00AE091F803C0BCF1480FCF
:101D500005D14FF0010C0CFA00FCC2F810C0401C79
:101D60000828D1D31460B1F800C0BCF1FF0F34DDF6
:101D7000546800202EE000F1080C4FF0010808FA2A
:101D80000CF3B1F800C00CEA03069E4221D1830097
:101D90004FF00F0C0CFA03F7BC4305FA03FC4CEAB6
:101DA000040491F803C0BCF1280F05D100F1080C20
:101DB00008FA0CF8C2F8148091F803C0BCF1480F7F
:101DC00007D100F1080C4FF0010808FA0CF8C2F82E
:101DD0001080401C0828CED35460BDE8F08100007C
:101DE00010B50021034801F003F803490860002002
:101DF00010BD0000E84900082C00002010B50021AB
:101E0000184801F081F8184908600021174801F0CE
:101E10007BF8174908600021164801F075F816494B
:101E200008600021154801F06FF81549086000218D
:101E3000144801F069F8144908600021134801F0C2
:101E400063F8134908600848006840B9084800680A
:101E500028B90948006810B94FF0FF3010BD0020C4
:101E6000FCE70000784900080C00002088490008C1
:101E7000140000209849000810000020B84900080C
:101E800018000020A84900081C000020C8490008CC
:101E90002000002010B500210D4800F0E3FF0D499F
:101EA000086000210C4800F0DDFF0C49086009487B
:101EB000006810B90846006808B1012000E0002061
:101EC000C04310B14FF0FF3010BD0020FCE7000010
:101ED000D849000824000020E0490008280000201C
:101EE00010B50021084600F029FD0AA000F0C6FD4B
:101EF0000021082000F022FD07A000F0BFFD002017
:101F000004E02021054A22F81010401C0E28F8DBBE
:101F100010BD000041313A0041323A009C000020DF
:101F200070B5002100230F22C47804B3154C246837
:101F300004F4E064C4F5E064210AC1F10403CA407A
:101F4000447804FA03F184781440214309010E4CCB
:101F50000678A155047804F01F050124AC400578EB
:101F60006D11AD0005F1E025C5F8004109E00478E8
:101F700004F01F050124AC40044D0678761145F8A5
:101F8000264070BD0CED00E000E400E080E100E0E0
:101F900002490143024A1160704700000000FA053F
:101FA0000CED00E001460020034A506820F4404058
:101FB00008435060704700000010024029B1064AF3
:101FC000D2690243044BDA6104E0034AD2698243D6
:101FD000014BDA61704700000010024029B1064A47
:101FE00092690243044B9A6104E0034A9269824376
:101FF000014B9A61704700000010024030B500218B
:102000000022002400232D4D6D6805F00C0121B144
:10201000042905D0082923D105E0294D056022E0D7
:10202000274D05601FE0254D6D6805F47012234DA6
:102030006D6805F48034022505EB92421CB9214DF0
:10204000554305600BE01D4D6D6805F400351DB16D
:102050001C4D5543056002E0194D5543056002E0F3
:10206000174D056000BF00BF144D6D6805F0F0010D
:102070000909154D6B5C0568DD4045600F4D6D68C5
:1020800005F4E061090A104D6B5C4568DD40856030
:102090000A4D6D6805F46051C90A0B4D6B5C4568CB
:1020A000DD40C560054D6D6805F44041890B074D65
:1020B0006B5CC568B5FBF3F5056130BD00100240EF
:1020C00000127A0000093D004C0000205C00002056
:1020D00010B5024800F064F810BD00000038004060
:1020E0000348008820F00100014908807047000083
:1020F0000838004000B587B001218803FFF75EFF74
:102100001820ADF814000020ADF810000220ADF842
:102110000E000720ADF818000020ADF80C00ADF857
:102120000800ADF816004FF48270ADF80A000020E8
:10213000ADF8120002A9184800F035F818208DF803
:1021400007004FF42040ADF8040001208DF8060090
:1021500001A91248FFF7B8FD00208DF807004FF4E1
:10216000A040ADF8040001208DF8060001A90B483D
:10217000FFF7AAFD24208DF8000001208DF8030050
:1021800003208DF8010001208DF802006846FFF75A
:10219000C7FE07B000BD000000380040000C014041
:1021A00001468889704710B50022028802F4415226
:1021B0000B884C8823438C882343CC8823430C8989
:1021C00023434C8923438C892343CC8923431A43DB
:1021D0000280838B4FF2FF74234083830B8A038238
:1021E00010BD10B500F002F810BD00000CB50020C5
:1021F000019000903348006840F480303149086015
:1022000000BF3048006800F4003000900198401C86
:102210000190009818B90198B0F5A06FF1D1294844
:10222000006800F4003010B10120009001E00020AF
:1022300000900098012843D12348006840F0100026
:10224000214908600846006820F00300086008463D
:10225000006840F0020008601A4840681949486068
:102260000846406848600846406840F4806048601E
:102270000846406820F47C1048600846406840F4F6
:10228000E81048600846006840F08070086000BFB1
:102290000C48006800F000700028F9D00948406838
:1022A00020F00300074948600846406840F00200FB
:1022B000486000BF0348406800F00C000828F9D1CE
:1022C0000CBD0000001002400020024010B50021AB
:1022D00000200022214B5B6803F00C0121B104298E
:1022E00006D0082928D107E01D4B1E4C236027E0AB
:1022F0001B4B1C4C236023E0184B5B6803F47010ED
:10230000164B5B6803F48032022303EB904022B942
:10231000154B4343134C23600DE0104B5B6803F4F3
:10232000003323B1104B43430E4C236003E00C4BAE
:1023300043430C4C236003E0094B0A4C236000BF6D
:1023400000BF064B5B68C3F30313084CE15C054B0D
:102350001B68CB40034C236010BD000000100240FE
:1023600000127A006000002000093D006400002097
:1023700010B51348006840F0010011490860084694
:102380004068104908400E494860084600680E49F8
:1023900008400B4908600846006820F48020086067
:1023A0000846406820F4FE0048604FF41F00886033
:1023B000FFF717FF4FF000600449086010BD0000F0
:1023C000001002400000FFF8FFFFF6FE08ED00E0FD
:1023D00010B5024800F03EF910BD00000044004076
:1023E00010B50648008820F020000449088001212B
:1023F0000348006800F070FD10BD0000004400407C
:102400000C00002010B586B001214804FFF7D6FD6E
:102410004FF4165002900020ADF814000C20ADF8D7
:1024200012000020ADF81000ADF80E00ADF80C0061
:1024300002A9274800F0A2F80121254800F060F821
:1024400001210420FFF7CAFD0420ADF80400182084
:102450008DF8070002208DF8060001A91D48FFF73E
:1024600033FC0820ADF8040004208DF8070002209A
:102470008DF8060001A91748FFF726FC012240F25B
:102480002551134800F055F84FF44070FFF780FDD8
:102490004FF0FF300021002804DB0A07130E0E4A1C
:1024A000135406E00A07140E0C4A00F00F031B1F1A
:1024B000D45400BF26208DF8000003208DF80100C1
:1024C00001208DF803006846FFF72AFD06B010BD15
:1024D000004400400008014000E400E018ED00E086
:1024E00010B5044600BF8021044800F015F800280C
:1024F000F9D02146014800F0B2F810BD0044004078
:1025000021B1828942F40052828104E082894DF631
:10251000FF731A408281704702460020B1F5007FA8
:1025200000D100BF13880B400BB1012000E0002058
:102530007047F0B50346002400260025002040F631
:102540006A17B94200D100BF1846C1F3421401F026
:102550001F06012707FA06F5012C01D10C3004E013
:10256000022C01D1103000E014301AB107682F435B
:10257000076002E00768AF430760F0BD2DE9F04750
:1025800086B005460E460024A24600BFA14600279D
:10259000B08900B100BF2F462C8A4CF6FF70044072
:1025A000F08804432C82AC894EF6F3100440B088C6
:1025B00031890843718908430443AC81AC8A4FF6E2
:1025C000FF400440B0890443AC8201A8FFF716FD28
:1025D0001F48874202D1DDF810A001E0DDF80CA011
:1025E000A88900F4004040B10AEBCA0000EB0A10D1
:1025F00031684900B0FBF1F807E00AEBCA0000EBD4
:102600000A1031688900B0FBF1F86420B8FBF0F0E3
:1026100004012009642101FB1089A88900F400400D
:1026200040B1322000EBC900B0FBF1F000F0070030
:10263000044308E0322000EB09106421B0FBF1F004
:1026400000F00F0004432C8106B0BDE8F0870000C5
:102650000038014001468888C0F308007047C1F384
:10266000080282807047490050EAC12018BF042048
:102670004A0D18BF40F0010040F2FF72B2EB515F0B
:1026800008BF40F00200012808BF0520704710B5C0
:10269000002A06DA22F00042D21D22F0070310229F
:1026A00003E0D21C22F003030C2213B19C188C42CD
:1026B00001D9012010BD024401448360C0E900211A
:1026C000C91AD018884202D810600246F9E70020E3
:1026D000106010BD05490978002905D000684FF643
:1026E000FF71DFF80CC000DF7047000075000020AC
:1026F0007D370008084A10B511690346082900D340
:10270000FEE7064800EB0110491C1860116100F05B
:10271000C1FF012010BD000038000020602C002007
:1027200004490978002903D00068DFF80CC000DFF5
:102730007047000075000020A536000808480068B2
:10274000C0010BD507480068C00707D0054880388E
:102750000068002802DA0449012008707047000070
:10276000FCED00E0800E00E0980000204FF0604299
:10277000D36F002BFCD0036BD367D36F002BFCD03F
:10278000C07840EA0120A2F87C0070474FF0604119
:10279000CA6F002AFCD081F87C0070470EB58022F9
:1027A00000B109B110460AE001780129FAD101A966
:1027B00000F046F8042801D0002000E01020DDE9F8
:1027C000011203B000BD70B50D46040003D012B96C
:1027D0002078012801D0802070BD204600F008FE3E
:1027E00028B12946204600F056F8002070BD81200F
:1027F00070BD70B50C4601F013FA4FF0004108B1FE
:10280000220C01D0084670BD058BC178A0B200F043
:1028100003F8284670BD00000A460146074810B577
:1028200000EB820050F8040C002805D001F030F8CD
:10283000BDE8104001F01CB810BD0000BC2800200D
:1028400010B504468089002824D0608904EB8000FC
:1028500000690860606840B16078022805D10021F5
:10286000204601F015F801F003F804F10C0000BF58
:10287000D0E85F1F491E8AB2C0E8512F0029F7D166
:102880006089401C80B26081E189884201D10020CA
:102890006081042010BD10B500F0FAFFBDE81040C3
:1028A00000F0E6BF2DE9FC4781460C462546284648
:1028B000FDF78DFD0646484601F0E6FF07A2CDE98B
:1028C0000001611C3046FDF7C7FD304600F0D6F828
:1028D0003046FDF7B7FDBDE8FC8700002566000027
:1028E00010B500F027F80446402C07DA002108460E
:1028F00000F024F805A000F0C1F806E00121002056
:1029000000F01CF801A000F0B9F810BD2020202034
:102910002020202020202020202020200000000037
:1029200010B5012000F0D8F910BD10B5062000F058
:10293000D3F910BD10B500F03BF910BD70B50446D9
:102940000D462DB9E1B241F0800000F0C5F906E076
:1029500004F14001C9B241F0800000F0BDF970BD42
:1029600010B50446FEF7F0FF01210820FFF736FB03
:1029700001210420FFF732FB4FF4E0402749088093
:102980001020C870022088702548FFF79DF94FF489
:102990007060224908801020C87002208870214889
:1029A000FFF792F94FF47A50FEF7DAFF4FF4007018
:1029B0001C49103108604010086000F0E9F841F24D
:1029C0008830FEF7CDFF00F0E3F84020FEF7C8FFA7
:1029D00000F0DEF84020FEF7C3FF4FF4007011490D
:1029E000103108604010091D086000F0D1F8402047
:1029F000FEF7B6FF282000F06FF9082000F06CF910
:102A0000FFF78EFFFFF791FF074804700146097832
:102A100041F0080000F060F910BD00000600002041
:102A2000000C0140000801400400002070B505467C
:102A3000402D01DA402400E0002444F0800000F042
:102A40004BF970BD70B50546FFF774FF04460A2DBB
:102A500003D12046FFF7EAFF0FE0102C04D100213C
:102A6000C02000F0B5F805E0502C03D100218020F3
:102A700000F0AEF8284600F038F970BD10B50446F5
:102A800003E014F8010BFFF7DDFF20780028F8D1F0
:102A900010BD000070B5054600244FF400503949C0
:102AA000086015B14010086004E04FF480503549CB
:102AB000091D08604FF47060334908804820C870D1
:102AC000022088703148FFF7FFF84FF480402D490D
:102AD00008600220FEF744FF2C480830006800F42C
:102AE000807008B144F0100428480830006800F4F1
:102AF000007008B144F0200424480830006800F455
:102B0000806008B144F0400420480830006800F4B8
:102B1000006008B144F080044FF480401949091D59
:102B200008600220FEF71CFF4FF480401549086042
:102B30000220FEF715FF15480830006800F4807089
:102B400008B144F0010411480830006800F4007036
:102B500008B144F002040D480830006800F48060B9
:102B600008B144F0040409480830006800F400602B
:102B700008B144F008044FF480400249091D086080
:102B8000204670BD100C01400600002000080140E6
:102B900010B54FF48040054908600220FEF7E0FEC2
:102BA0004FF480400149091D086010BD100C014020
:102BB00010B500BF0020FFF76DFF00F08000002877
:102BC000F8D10420FEF7CCFE0020FFF763FF10BD14
:102BD00070B504460D464FF400503C4908601DB1E5
:102BE0004010091F086003E04FF480503749086027
:102BF0004FF47060364908801020C8700220887039
:102C00003448FFF761F84FF400603249143108602E
:102C100040100860401008604010086004F0800018
:102C200010B1C814091F086004F0400020B14FF42F
:102C3000806028491031086004F0200020B14FF472
:102C4000007024491031086004F0100020B14FF4E6
:102C50008070204910310860FFF79AFF4FF4006040
:102C60001C49143108604010086040100860401092
:102C7000086004F0080010B1C814091F086004F0CF
:102C8000040020B14FF4806012491031086004F054
:102C9000020020B14FF400700E491031086004F0BA
:102CA000010020B14FF480700A4910310860FFF72D
:102CB0006FFF4FF400600749103108604010086052
:102CC000401008604010086070BD0000140C014006
:102CD000060000200008014010B50446FFF768FF19
:102CE00000212046FFF774FF10BD10B50446FFF722
:102CF0005FFF01212046FFF76BFF10BD10B5FFF706
:102D000081FBFFF7F7F9FEF7A9FC0420FFF728FE87
:102D1000FFF7E6F800F016F8FFF7BCF8FFF760F8E9
:102D2000FFF76CF800F020F8002010BDEFF30581EC
:102D300009B182207047DFF808C000DF704700004B
:102D4000F93E0008EFF3058008B182207047EFF3E9
:102D50001480C00703D0DFF80CC000DF704701F01B
:102D6000D5B800000D3F000888B0EFF3058010B122
:102D7000822008B07047EFF3148010F0030113486D
:102D800006D001291BD0022911D0032919D113E043
:102D900008A981F309880078C0070BD05FF0020012
:102DA00080F31488BFF34F8FBFF36F8F09E0007873
:102DB000C00706D10320F3E70078C00701D0FF2049
:102DC000D7E7DFF80CC000DFD3E700000C4A0008AB
:102DD0007D3F0008EFF3058212B1012201F018BA1D
:102DE0000022DFF808C000DF704700001142000831
:102DF000EFF305820AB100207047EFF31482D20787
:102E000002D1044A52781AB1DFF80CC000DF7047D3
:102E100001F0D8B874000020C53F0008EFF3058228
:102E200012B1012201F020BA0022DFF808C000DF51
:102E3000704700006942000810B530B1006800F02A
:102E400027F8102800D1202010BD802010BD20B10F
:102E500029B10068002200F027B880207047862042
:102E600070470000EFF305820AB100207047EFF3CE
:102E70001482D20702D1044A52781AB1DFF80CC08A
:102E800000DF704701F0BFB8740000200740000861
:102E9000EFF305820AB1FFF781BCDFF808C000DF5D
:102EA000704700002B400008EFF305830BB1FFF7DC
:102EB0008ABCDFF808C000DF7047000065400008EA
:102EC000EFF3058212B14FF000407047DFF804C005
:102ED00000DF70479B400008EFF305820AB1FFF75F
:102EE00088BCDFF808C000DF70470000BF40000862
:102EF000EFF305830BB182207047DFF808C000DFD5
:102F000070470000E5400008EFF305820AB1002099
:102F10007047EFF31482D20702D1044A52781AB1F3
:102F2000DFF80CC000DF704701F006B97400002024
:102F300039410008DFF80CC000DFDFF80CC000DF0B
:102F4000FEE70000A5410008C1410008DFF804C009
:102F500000DF7047F9410008094C4FF0FF35294662
:102F60002068FFF795FF02460846102AF7D1FFF7C1
:102F7000EDFF0028F3D0024608469047EFE7000037
:102F80003C000020012806D0022805D0032804D0E8
:102F9000042804D102E003E002E001E000E000BF09
:102FA00000BF00BFFEE700BF30BFFDE70748016874
:102FB0004FF0E02041610021816107210161044857
:102FC000016841F07F41016040177047084A0008DE
:102FD00020ED00E0704750E8001F31B10B6840E879
:102FE0000032002AF7D108467047BFF32F8FFAE767
:102FF00010B568B161B10B3121F00302016844687A
:103000000B1A1B1B934205D2084609680029F5D10B
:10301000002010BD210007D021180368C1E900324B
:10302000016001F1080010BD4260083010BD0000D1
:1030300070B50D46002812D04FF6FF71084C88423B
:1030400004D222680146104600F050FC206845700A
:10305000044800F037F9BDE8704000F00BBD70BDCA
:103060007C000020142D00200F4810B50D49426847
:103070000E480B680068934204D00A60CB88421E59
:103080001A448A808A8880B282420AD1002008606D
:10309000054800F017F90146BDE81040024800F06D
:1030A00049BC10BD90000020142D00208C00002091
:1030B00070B5194DE86800282CD0A88A401EA88257
:1030C000002621E0A06838B161684160606810B1F5
:1030D000A16881606660A6600F482146183800F03C
:1030E00029FCA08AA8826078042804D10B49E08AD0
:1030F00009880844A08201206070E068E860E06808
:1031000008B10561E6602661A88A002802D1EC6852
:10311000002CD7D170BD00002C2D00208C00002089
:1031200070B504000FD00D4DA17801262868827873
:1031300091420CD900F01AFC286846702046BDE880
:10314000704000F097BC064800F0BCF8F7E76670E6
:103150002146BDE87040024800F0ECBB7C00002036
:10316000142D00200321FFF763BF0000054A02EB86
:10317000810151F8041C002902D00A8B82430A8382
:1031800070470000BC28002010B50446008B08439F
:1031900020836278618B062A18D0052A19D108424B
:1031A00017D001EA0002628388432083204600F0A2
:1031B00008FC01206070628B0821204600F0FDFBB6
:1031C0002146BDE81040034800F0B4BB31EA0002DC
:1031D000EAD010BD142D00200246154810B500EBB2
:1031E000810050F8044C002C21D0208B1043208308
:1031F0006278618B062A17D0052A18D1084216D0AA
:1032000001EA0002628388432083204600F0D9FB54
:1032100001206070628B0821204600F0CEFB204622
:10322000BDE81040FFF77CBF31EA0002EBD010BDD3
:10323000BC28002070B503460C480D460468208B5E
:1032400042B133EA000101D0062109E0984320830E
:10325000022070BD10EA030101D06183F6E7052169
:1032600063832846FFF7E4FE012070BD7C00002048
:10327000814202D342688A4201D801207047026825
:103280000A60BFF35F8F50E8003F0A689A42F6D1A8
:1032900040E80012002AF2D10020704768B161B105
:1032A0000022083902E00246006830B18842FAD1B3
:1032B0002AB100681060002070470120704700218B
:1032C0004160F8E70146406842684A600B78002296
:1032D000022B05D0012B03D0032B01D04260704795
:1032E00043680BB19960426082607047810700D0EB
:1032F0000020704770B5044600201546207001225A
:103300006270A17084F824106060A060E0602061A9
:103310002062A082E0822083608384F82500E08C14
:1033200018B90548FFF757FEE06229462046BDE878
:10333000704000F01DB800005804002008B10829B2
:1033400001D2012070470144091F002201600A6078
:1033500042601046704700000348002101600349A5
:103360000988C1807047000090000020FC490008D7
:1033700070B5C28C1C4D930802D12A88C2F38D030C
:10338000C26A02EB8302540700D5121F4FF080740B
:1033900042E9021400242646B2F1400242F82460B9
:1033A000641C0E2CFAD3C46914628262016329681A
:1033B000C90014D5112B12D94FF0FF31103B11EB7E
:1033C00053014FF0CC3305D042F8043C42F8083D9D
:1033D000491EF9D1C16A121F8A4200D91360C06A1E
:1033E0000249016070BD0000F8490008A52E5AE2AC
:1033F000C1898089081A7047012202700022427038
:103400008270426002814281103982818908C181C3
:10341000704700002DE9F041044640680E464FF029
:10342000000804F10C05E8B36078012701283ED0BC
:10343000022813D003285CD10846FFF7CCFD050015
:1034400057D02046FFF73EFF0446294600F0B2FA67
:103450006770204600F0B5FA214621E02046FFF7CC
:1034600031FF0646002100F0A5FA2189F06904EB3E
:1034700081010861D5E85F0F401C81B2C5E8501F8B
:103480000028F7D12089401C80B22081E189884240
:1034900001D1A4F808807770304600F092FA3146E6
:1034A000174800E00CE0BDE8F04100F043BA2046C8
:1034B000FFF708FF04463246102100F07EFAC7E706
:1034C000A089E189884216D2208904EB8000066138
:1034D000D5E85F0F401C81B2C5E8501F0028F7D126
:1034E0002089401C80B22081E189884201D1A4F862
:1034F0000880BDE8F081BDE8F0410320FFF742BD40
:10350000142D002070B5164642680D4612B1417860
:1035100001290BD08189C4890023A14224D19EB105
:103520001D4C216892B100F005FA16E0FFF7CAFEC3
:1035300004462A46102100F040FA204600F041FAE5
:103540002046FFF7EDFD25E0012070BD41602168B8
:103550004B60216888600221417020680821C561A4
:103560003046FFF765FDEFE7018900EB81010D6152
:1035700000F10C01D1E85F2F521C94B2C1E8524F08
:10358000002AF7D10189491C89B20181C28991427F
:1035900000D10381002070BD7C00002070B504467E
:1035A000808915460026C0B3608904EB800000695D
:1035B00008606089401C80B26081E189884200D146
:1035C0006681606810B1607802280BD014F10C0499
:1035D000D4E85F0F401E81B2C4E8501F0028F7D125
:1035E000002070BD2046FFF76DFE0546002100F06B
:1035F000E1F92189E86904EB810108612089401C17
:1036000080B22081E189884200D12681284600F0DD
:10361000D8F92846FFF784FDE2E7FFE73DB10B4804
:10362000626801682AB1204600F084F908E00120B0
:1036300070BD616001684E60006884600120607048
:1036400008212846FFF7F4FCF1E700007C00002089
:10365000002814D0411C13D00C4A4FF6FE71904242
:103660000CD800EB4002C2EBC0120948036803EB20
:10367000C202521EB2FBF3F0884204D908467047DA
:103680004FF6FF70704780B27047000000093D00A0
:10369000184A0008032101700021418041608160C7
:1036A000C16070472DE9F0410446408820B1314D9A
:1036B000A1682A68914202D0FF20BDE8F081401E37
:1036C0000004000C608053D12968086AA04209D127
:1036D000E068086208E0C268A24202D1E268C26003
:1036E00002E010460028F6D191F824000A6A06E0AC
:1036F00053681BB19B78834200D91846D268002AD0
:10370000F6D18870DFF870806168012611B3204619
:10371000FFF7D8FD0746002100F04CF9384600F0CD
:1037200050F96680A760386AE0603C622968D8F882
:1037300004008A788078824201D3384616E00E4829
:1037400000F0F8F839460C4800F0F4F828684670A4
:103750007E700AE0D8F804108A782968824207D976
:10376000054800F0E7F8286846700020FFF7D8FC0D
:103770000020A2E77C000020142D002070B51C4D15
:103780000E4604464188286861B1A268824210D181
:10379000A1F57F40FF3803D0491C6180002070BD37
:1037A000FF2070BDA060016AE160046201206080BA
:1037B000F4E776B191788078814203D29070A06866
:1037C00000F0DEF8606830B12046296800F0B2F8F9
:1037D00008E0012070BD286860602968002048600A
:1037E0002868846009213046FFF722FCF1E70000D9
:1037F0007C00002070B51B480121026851700068F0
:1038000000F0B4F8184D6C7818E000BF05EBC40167
:1038100048680278EAB1012A20D000F0FFF8E87881
:10382000641C844200D100240F48801CD0E84F1F44
:10383000491EC9B2C0E8421F002AF7D1A878002863
:10384000E4D16C700948FFF73DFDBDE8704000F021
:1038500011B9098989B2FFF797FCE0E78968FFF79A
:10386000D9FDDCE77C000020B8250020142D0020C5
:103870000548017811B101214170704703494FF0AB
:1038800080500860704700008400002004ED00E0D4
:10389000F0B4154DAB1CEE784FEA0507D3E84F2F77
:1038A000B24202D1BFF32F8F11E0521CD4B2C3E851
:1038B000424F002AF2D100BFD7E84F2F541CB44228
:1038C00000D10024E4B2C7E8434F002BF4D1EB78D9
:1038D000934205D905EBC202C2E90101F0BC704771
:1038E000F0BC0220FFF74EBBB8250020104A10B5EF
:1038F000D368ABB113469B8A03E08CB12246A48AFD
:103900002344D4688B42F8D3C460D0600261C46899
:1039100004B12061591A8182908A401A908210BDA8
:103920000024C460D060C91A02619182848210BDF3
:103930002C2D002030B502780023022A03D0012A62
:1039400001D0032A00D101238C7800E010464268A0
:1039500012B19578A542F9D24A6041601BB102B11B
:103960009160886030BD0020FBE7000003494A6891
:10397000426000228260486070470000142D0020E1
:1039800010B5836804462BB9607801280ED1084B26
:1039900003E09B6818780028FBD0204600F026F84A
:1039A0002146BDE810401846FFF7C4BF10BD000017
:1039B000142D0020806A01627047806AC0E90812F5
:1039C000704710B5016900290ED0C268CA60C3688B
:1039D00000223BB18B8A848A23448B82C36819619D
:1039E000C26000E08A82026110BD0000816839B1C6
:1039F00042684A604168002901D080688860704749
:103A0000054906E04A68824202D140684860704732
:103A100011460029F6D17047142D002010B54168D9
:103A200081B1FFF74FFC0446FFF7CBFF0120607028
:103A300001462046FFF7BEFF2146BDE8104003487F
:103A4000FFF778BF4188491C418010BD142D00202C
:103A500006480068D0E90A10814203D3006804498F
:103A6000884202D00120FFF78DBA70477C00002009
:103A7000A52E5AE20749022248604270064A12788F
:103A8000002A05D006C98A4202D0C078FEF77EBE61
:103A9000704700007C0000209800002070B5FEF701
:103AA0004DFE00200446204A204902E042F8204012
:103AB000401C0B889842F9D31D48342201881D48C8
:103AC000FEF7E5FD1C48008880B240F000421B482C
:103AD00001681B48FEF7DBFD1A48082201881A48D6
:103AE0000068FEF7D4FD194DFF20194AE870EC84F8
:103AF00000212846FFF7FEFB1648042101704460B0
:103B000015480170C4600461848214481549056039
:103B1000022068701248047044700978C170BDE8D2
:103B20007040FFF719BC0000BC280020F4490008D1
:103B3000204A000878020020F8490008244A0008BA
:103B400058040020484A000844000020E02C0020CF
:103B5000A72F0008142D00202C2D00207C00002011
:103B6000B82500202C4A00081B4810B5016841F414
:103B70007F01016000684FF07F4101EA0020164993
:103B8000C0431439B0FA80F00968C0F10800C1F3ED
:103B90000221814200D3481C0F49091F0B686FF0B6
:103BA0008072824063F317020A60FFF7FFF90B4946
:103BB000002808600EDB00F1E021FF2281F80024DC
:103BC00000F01F02012191404009800000F1E02037
:103BD000C0F8001110BD000020ED00E088000020BA
:103BE0000C4810B50268012151700068FFF7BEFE55
:103BF000FFF73AFA08480168491C0160FFF758FAD4
:103C000000F062FB0548FFF75DFBBDE81040FFF7E1
:103C100031BF00007C0000208C000020142D00200B
:103C2000002805D0810702D10178002900D00020AA
:103C30007047000030B50B4C0023626805E09568C2
:103C40008D4204D813461268491B002AF7D102603E
:103C5000816012B19568691A91600BB1186030BD2E
:103C6000606030BD740000202DE9F0411E4617460B
:103C700080460D4611F0FF0F00D14D1C1848FFF78C
:103C8000AAF9041E16D0280AE762E084E9B2424687
:103C90002046E661FFF72EFB01251248124905E098
:103CA00000EB850252F8042C32B16D1C0A88954253
:103CB000F6D90020BDE8F081002DFAD000EB850098
:103CC00040F8044C0948E570007818B101212046FD
:103CD000FEF74CFD2046FFF723FA2846EAE70000EE
:103CE00078020020BC280020F44900089800002039
:103CF0002DE9F05F584DDFF85891DFF858812968B9
:103D00004FF0010A002618B1CA78AB46824243D16F
:103D10004E70FCF75EFA29688862FFF799FE286802
:103D2000046A1FE06068C0B12046FFF7CBFA07467F
:103D30000021FFF73FFE3846FFF743FE87F801A05A
:103D400039464648FFF7F6FDE168A4F802A0A760EF
:103D5000386AE0603C620C4604E0E0686680A66079
:103D6000E6600446002CDDD12868C27808EB8201A9
:103D700041F8046CC16A3A48FFF77AFA2868C662CB
:103D800099F8001011B10021FEF7F0FC35482968C0
:103D9000FFF76EFA2E6056E03349098888420CD846
:103DA00008EB800858F8045C3DB12846FFF71EFE7A
:103DB0002846FFF706FE2C6A22E0FF20BDE8F09FB0
:103DC0006068C0B12046FFF77DFA07460021FFF783
:103DD000F1FD3846FFF7F5FD87F801A039461F4889
:103DE000FFF7A8FDE168A4F802A0A760386AE060C8
:103DF0003C620C4604E0E0686680A660E66004462B
:103E0000002CDDD148F8046C1548E96AFFF730FA58
:103E1000EE6299F8000018B100212846FEF7A6FCD2
:103E200029461048FFF724FA0C48DBF800104068D8
:103E30008B7882789A4209D981F801A00748DBF88B
:103E40000010FFF777FD0020FFF76AF90020B5E7C3
:103E500098000020BC2800207C000020142D0020A9
:103E60005804002078020020F449000870B51A4D6B
:103E700080B11A4A128890421FD8194A02EB80007A
:103E800050F8044CCCB1A17084F824102868A042EA
:103E900005D014E028688170286880F82410114843
:103EA00040688078884215D90E482968FFF742FD9E
:103EB00029680120487000200AE0FF2070BD2046DC
:103EC000FFF75EFD6078012804D10648FFF7FAF994
:103ED000FFF726F9002070BD7C000020F44900089F
:103EE000BC280020142D002002480068002800D0C3
:103EF000C07870477C00002010B5002804D0FFF780
:103F0000A7FBFFF72FF9402010BD000010B5134CA0
:103F1000207860B91248400705D11248016810485E
:103F2000FFF70CFA08B1852010BDFFF7B7FD0E4969
:103F3000FF2009688870207858B900210B4800F0EC
:103F400062F80B49086000210A4800F0F5F80A49B8
:103F50000860012020700020607010BD74000020F7
:103F6000A8230020284A00087C000020404A0008BE
:103F70003C000020304A00083800002070B50F4D8A
:103F8000687808B1002070BD0D4C206890F82410AE
:103F90000020FFF76BFF2068C178FF2903D1816AF9
:103FA000203181F30988616811B9606000202060C8
:103FB000FFF7DAFD01206870E4E7000074000020DC
:103FC0007C00002070B504000BD0216849B1626804
:103FD0003AB1A06828B1D0E9005010B10DB12B78EA
:103FE0000BB1002070BDD21C22F0030251430C31F2
:103FF000FEF74DFB20888000103081B22846FFF785
:10400000FBF9A06870BD10B5040005D0216819B196
:10401000606808B102780AB1002010BD8900103133
:1040200089B2FFF7E9F9606810BD3EB504000D469E
:104030004FF0800012D0217801290FD12846FFF7D8
:1040400007FB0246204601A9FFF7A8FA012801D084
:10405000102003E00DB1402000E00020DDE9011256
:1040600003B030BD70B50E460400154602D020786E
:10407000012801D0802070BD1046FFF7E9FA024602
:1040800031462046FFF73EFA012801D0002070BDDE
:104090000DB1C12070BD812070BD70B50C46FFF719
:1040A000BFFD4FF0004108B1220C01D0084670BDA1
:1040B000058BC178A0B2FFF759F8284670BD70B5DE
:1040C0000C46FFF7ADFD4FF0004108B1220C01D0C6
:1040D000084670BD058BC178A0B2FFF77DF8284671
:1040E00070BD000070B504460D46000C01D086205E
:1040F0001EE008462CB1FFF7ABFA0146A0B2012240
:1041000005E0FFF7A5FA014600224FF6FF70FFF722
:1041100091F8022802D04DB1402008E008200CB1EF
:10412000214605E003490968498B01E00020002190
:10413000324670BD7C00002070B50E46040029D0C8
:10414000206838B3606810F1030F23DB032821DCFB
:10415000E16829B11048FEF74BFF05001AD000E0D6
:1041600000256068E168001D40EA012133462A46C7
:104170002068FFF779FD40B1084901EB800008494C
:1041800050F8040C826A516370BD1DB12946024883
:10419000FFF784F8002070BDA8230020BC28002071
:1041A000352F000810B5FFF79FFE002804D0034903
:1041B00001EB800050F8040C10BD0000BC2800206A
:1041C00010B5FFF72DFD18B1C18C19B1C46A02E01A
:1041D000802010BD0024C078FFF78AFDFF2806D09C
:1041E0001CB121460348FFF759F8002010BD81207B
:1041F00010BD0000A823002010B5FFF777F820B10C
:1042000041690A680169104610BD0020014610BDD1
:1042100070B50D46002806D0D0E9004010B10CB1B1
:1042200012B10DB1002070BDFEF7D5FE060017D10A
:10423000B5B10C4861680029016803D02046FFF73A
:1042400079FB07E0616002680021516000688460CA
:10425000032060702846FFF7FBF90821FEF7E8FE0F
:10426000304670BD7C00002070B5164648B1D0E9DC
:10427000004534B12DB12846FEF7FAFF18B186206B
:1042800070BD802070BD6068E0B16078032819D1EE
:1042900036B129462046FFF7FBFAFFF7E9FA11E0AD
:1042A0002846FEF798FE05000CD02046FFF70AF8D6
:1042B00004462946FFF77EFB2046FFF782FB204697
:1042C000FEF72EFF002070BD2DE9F041134E7468FB
:1042D000002C1CD0A068124F401E4FF00108A060B7
:1042E00012E0254624687460002229463868FEF7EB
:1042F0006AFA10B10420FEF745FE6879012808D05B
:1043000085F80480002C02D0A0680028E9D0BDE820
:10431000F0812846E968FFF78DFCF3E77400002080
:104320003C00002010B500290AD00878002807D0EA
:1043300005487844FCF75EF9002801D0002010BD44
:104340000248784410BD0000DE070000D6070000D8
:1043500021F00042A2F16052B2F5801F01F000434B
:1043600028BFD2F17F6C0BD95FEA001C43EAC2027E
:1043700042EB507018BF704728BF20F00100704713
:10438000B2F5801FBCBF184670474FEA410C1CF5C0
:10439000001F02D2084600F0E8BA70B500F020FA1B
:1043A00000000089FFF7F6BF4FF00040A0F5800045
:1043B000704700002DE9C04130B4DFF8A0C23CEAEC
:1043C000111418BF3CEA131400F0EC8081EA0305D5
:1043D0001CEA111444EAD57418BF1CEA131500F046
:1043E000C780A4EB05044FF0004545EAC12145EA2A
:1043F000C32341EA505143EA525304F17F74994276
:1044000004F500344FEAC0204FEAC22208BF9042B0
:1044100000F09C804FEA13650FF24016765D4FEA7C
:10442000134506FB05F7C7F1807706FB07F74FEA50
:10443000D737A7FB03687642C8F58038A7FB06CEBE
:1044400038BFA8F1010807FB08E64FF0000EA6FBF5
:10445000028CE6FB03CEDCF1000CCEF1004E38BF3F
:10446000AEF1010EA6FB0C584FF000074FF000050F
:10447000E6FB0E87A1FB08C6A0FB07CE16EB0E06D7
:1044800045F10005E1FB076515F1E04E7EBFA4F59F
:1044900080345FEA46066D4116F1800745F100055C
:1044A0004FEA17274FEA066647EA0567A6F1DE4698
:1044B000B6F1805F4FEA15251FD9384624F0010C6C
:1044C00005EBC471BCF1FE6F01EB0C1102D8F0BC1E
:1044D000BDE8008124425CBF01F5801E9EEAC47FD6
:1044E00002D4F0BCBDE80081244238D4F0BCA1F174
:1044F000C041BDE8004100F0C1B94FEAD22242EA12
:1045000043524FEAD323A7FB02864FEAD02040EA6A
:10451000415007FB03661EEA0E0F4FEAD12105FB4F
:10452000026658BFA6EB0056B6EB00564FEA520E95
:104530004EEAC37E18EB0E0E56EB530EBDD518EBAC
:1045400002085E417F1C55F10005B6E74FF4801567
:104550004FF000074FF000064FF00008ADE7F0BC49
:104560004FF0000001F1C04101F00041BDE80081C1
:1045700011EA0C1F0CEA131500D00CE013EA0C1F13
:1045800000F025804FF00000F0BC81EA030101F04B
:104590000041BDE80081F0BCBDE8004181EA0301B3
:1045A00000F06CB9F0BCBDE8004170B500F018F93E
:1045B000097EFC3E00F007B881EA03014FF00000DD
:1045C00001F00041704781EA030100F057B9F0BCE7
:1045D000BDE800414FF0000021497047FFFDFBF9A5
:1045E000F7F5F4F2F0EEEDEBE9E8E6E4E3E1E0DE26
:1045F000DDDBDAD8D7D5D4D3D1D0CFCDCCCBCAC898
:10460000C7C6C5C4C2C1C0BFBEBDBCBBBAB9B8B7BE
:10461000B6B5B4B3B2B1B0AFAEADACABAAA9A8A8B1
:10462000A7A6A5A4A3A3A2A1A09F9F9E9D9C9C9B7F
:104630009A9999989797969595949393929191902A
:104640008F8F8E8E8D8C8C8B8B8A898988888787BB
:104650008685858484838382828181800000FF0730
:104660000000F87FB0FA80F310FA03F10AD0C3F12A
:104670001D0303F580634FEA41504FEA035202EBFA
:10468000D12170474FF0000070470000DFF848C1AB
:1046900070B51CEA111E1EBF1CEA13159EEA0C0F12
:1046A00095EA0C0F00F06F8081EA030423EA4C13B3
:1046B0004EEAD47E21EA4C1141F4801143F4801378
:1046C000AE44A1FB024CA0FB0365AEF17F7E361920
:1046D00055EB0C05A1FB034C4CF10003A0FB021CA5
:1046E00016EB0C06654153F10003094218BF46F072
:1046F000010613F4007F0BD14FEA03314FEA053076
:10470000340341EA155140EA16506FF003020AE003
:104710004FEAC3214FEAC520F40241EA555140EA6D
:1047200056506FF0020202EB2E4201EB025585EA71
:10473000CE710AD05FEA440C18BF24F0004450F157
:10474000000041F1000120EAD47040F2FE7C624595
:1047500000D270BDA84214BF4FF080444FF04044D7
:10476000002E08BF0024BEF1806FA8BFA1F1C04198
:10477000BDE8704080F282804FF0000001F1C0413E
:1047800001F0004170479EEA0C0F0CEA131518BFA8
:1047900095EA0C0F06D04FF0000081EA030E0EF0F0
:1047A000004170BD00F01CF88900013E00F007B820
:1047B00000F009B84FEA430C5FEA5C5C08D081EA7C
:1047C000030100F05BB84FEA410C5FEA5C5CF6D194
:1047D0004FF00000014970470000FF070000F87F1C
:1047E0000EF1020E2EF0030E5EF8046B364205D475
:1047F000012A43EB030515F5001F12D8012841EBF0
:10480000010C1CF5001F0CD80ED14FEAD17C15F518
:10481000001F0CEB4C0C0CF1020C08BF4CEBD37CD2
:1048200004E04FF0080C01E04FEAD37C0CEB4C05A0
:1048300026FA05F606F00706B6F1040C06D20EEBD2
:10484000860CBDE870404CF0010C6047DFE80CF0CE
:10485000090B02024FF000414FF00000A1F50021CA
:1048600070BD19461046012851EB010418BFD4F55C
:10487000001484BF002001F0004170BD0808A0F5BD
:1048800000114FEA3101704743004FEAD30C4FEA61
:104890003C0C43401FBF40070CF1605113F0FE4F2A
:1048A00070471CF0006F03D100200CF000417047EE
:1048B0000CF0004343EA507010B540EACC0000F021
:1048C0000EF800BF000000924FEA0001FFF7D6BFCC
:1048D0004FF000414FF00000A1F5002170470EF1AC
:1048E000020E2EF0030E5EF8044B244204D44FEA6D
:1048F0004102B2F17F4F11D84FEA4003B3F17F4F2D
:104900000CD80ED14FEAD07CB2F17F4F0CEB4C0C9F
:104910000CF1020C08BF4CEBD17C04E04FF0080C0A
:1049200001E04FEAD17C0CEB4C0324FA03F404F0D1
:104930000704B4F1040C06D20EEB840CBDE8104061
:104940004CF0010C6047DFE80CF0070802024FF062
:104950000040A0F5800010BD0846420018BFD2F10B
:10496000807288BF00F0004010BDFF2141EAD050A6
:10497000C0057047FBF7AFBFDD1B00080200000059
:104980000100000000000000951C0008000000006D
:104990000100000000000000211A000800000000D3
:1049A0000100000000000000FD1A000802000000E5
:1049B0000100000000000000A91B0008000000002A
:1049C000010000000000000085190008010000003F
:1049D00001000000000000000C000000B8000020F2
:1049E0000C000000F80000200C0000001400000083
:1049F0003000002009000000E8030211050001005A
:104A0000001BB7000C000000DF2E000001000000BA
:104A10000200010052000400E80300000000000052
:104A2000E0010000501F00001002000060000000C4
:104A3000592F00080200000001000000C80000001B
:104A400004000000E028002000000000FD2C000809
:104A500000000000010000002801000002400000EA
:104A6000000000A00000000005400000000000C899
:104A7000000000000C4000000000409C000000000E
:104A8000194000000020BCBE0000000034400000BF
:104A9000BFC91B8E00000004B5400000504BCFD0B2
:104AA0006607E2CF010000006C4100003E8251AA7F
:104AB000DFEEA73401000000D9420000DCB5A0E21F
:104AC0003A301F97FFFFFFFFB4450000FD25A0C847
:104AD000E9A3C14FFFFFFFFFFF3F00000000008080
:104AE00000000000FF3F0000000000800000000008
:104AF0002C4B0008000000209C000000280100084A
:104B0000C84B00089C0000200C3300004401000842
:104B10001C00000043000000F8FFFFFF0C00000035
:104B20000E0000000F0000002E000000000000003A
:104B30000000000000000000000000000000000075
:104B40000000000000000000000000000000000065
:104B500000000000000000000000000038010020FC
:104B600078010020000000000000000000000000AC
:104B7000000000000000000000000000010203042B
:104B800001020304060708090204060800A24A04F9
:104B900000000000000000000102030406070809ED
:104BA0000000000000000000000000000000000005
:104BB00000000000000000000000000000000000F5
:084BC0000000000000000000ED
:04000005080000ED02
:00000001FF
